:100000000C948E030C94D5030C94D5030C94D50357
:100010000C94D5030C94D5030C94D5030C94D50300
:100020000C94D5030C94D5030C94D9270C94AB28CD
:100030000C94481E0C94D5030C94D5030C94D50352
:100040000C94D5030C94D5030C94D5030C94D503D0
:100050000C94D5030C94B01E0C94D5030C94D503CA
:100060000C94D5030C94D5030C94D5030C94D503B0
:100070000C94D5030C94D5030C94D5030C94D503A0
:100080000C94D5030C94D5030C94D5030C94D50390
:100090000C94D5030C94D5030C94D5030C94D50380
:1000A0000C94D5030C94D5030C94D503A204A4049A
:1000B000AF04A604A804AA04AC04AE04B104B304BB
:1000C000B504C004B704B904BB04BD04BF04C20432
:1000D0003E143E1478147814B714D71470167016A2
:1000E00019157016C915C9153D16451670166A16EC
:1000F000D615D615D615D615D615D615D615D615A8
:10010000D615D615D615D615D615D615D615D61597
:10011000E815F615FD1504160E1603170317151727
:1001200015170C17151715171517031703171117A0
:1001300015171517111718293F29312A3F29312A78
:100140008B29AE29312A042A132A07634236B79B2A
:10015000D8A71A39685618AEBAAB558C1D3CB7CC27
:100160005763BD6DEDFD753EF6177231BF0000009F
:10017000803F05A84CCDB2D44EB93836A9020C50F8
:10018000B9918688083CA6AAAA2ABE000000803F32
:100190006D3236726B5254736A464A37766A434EF2
:1001A0000029001E001F002000210022002300243F
:1001B000002500260027002D002E0000002A002B1D
:1001C00000000014001A000800150017001C001899
:1001D000000C00120013002F0030003200394100E3
:1001E0000004001600070009000A000B000D000EB5
:1001F000000F003300340028000000E10064001DFF
:10020000001B000600190005001100100036003721
:100210000038000000E5000000E000E3000000E21C
:10022000002C000000015100002C000000E600E757
:100230000000000251E40035003A003B003C003D64
:10024000003E003F004000410042004300440045A2
:100250000000004C0001000000005C52000100F4AE
:1002600000F000F50001005200010046000100010D
:1002700000010001000000500051004F00F200F1A9
:1002800000F300500051004F000100010001000088
:1002900000010000300100010001000100AA00A9D6
:1002A00000A800AC00AB00AE00000001000000019F
:1002B000000100000001004E000000010000004BA2
:1002C00000000001000100000001000100BA5CC351
:1002D0005CC45CC55CC65CC75C0100010001000138
:1002E0000001000100010000000100BB5C0000BD36
:1002F0005CBF5CC15C010001000100010001000164
:1003000000010001000100010001000000BE5CC00E
:100310005CC25C010001000100010001000100015C
:1003200000010001000000010001000100010001C6
:1003300000010001000100010001000100010000B6
:1003400000010000000100010000000100010000A8
:100350000001000000010000000100010000000198
:1003600000010000000000000000002A2B2800000F
:100370000000000000000000000000000000290054
:100380000000002C1E3420212224342627252E365E
:100390002D3738271E1F20212223242526333336CC
:1003A0002E37381F0405060708090A0B0C0D0E0F1F
:1003B000101112131415161718191A1B1C1D2F31A2
:1003C00030232D350405060708090A0B0C0D0E0F06
:1003D000101112131415161718191A1B1C1D2F3182
:1003E00030354C000000000000000000000000005C
:1003F00000000000000000000000000000000000FD
:1004000000000000010101010101000101010100E2
:1004100000000000000000000000000000010001DA
:1004200000010101010101010101010101010101BD
:1004300001010101010101010101010101010000AE
:1004400000010100000000000000000000000000AA
:10045000000000000000000000000000000001019A
:100460000101006801F000B40078005A007F3F1FCE
:10047000643214643214783C1E1E140A0500000015
:100480000000010101010101010101020202020259
:10049000020202020303030303030303040404042C
:1004A00004040505050505060606060607070707F1
:1004B000080808080909090A0A0A0A0B0B0B0C0CA0
:1004C0000C0D0D0D0E0E0F0F0F1010111111121239
:1004D00013131414151516161717181819191A1AB4
:1004E0001B1C1C1D1D1E1F1F202021222223242512
:1004F0002526272728292A2B2B2C2D2E2F2F30314C
:100500003233343536363738393A3B3C3D3E3F405E
:1005100041424344464748494A4B4C4D4F50515243
:1005200053555657585A5B5C5E5F606263646667FA
:10053000696A6C6D6E707173747678797B7C7E807D
:1005400081838486888A8B8D8F91929496989A9BCA
:100550009D9FA1A3A5A7A9ABADAFB1B3B5B7B9BBDB
:10056000BDBFC1C4C6C8CACCCFD1D3D6D8DADCDFB0
:10057000E1E4E6E8EBEDF0F2F5F7FAFCFF04033016
:100580000000000A0344005A003600300000000C4E
:10059000036C0069006E002D006500000004030973
:1005A0000409026D00040100A0FA0904000001031F
:1005B000010100092111010001224000070581030A
:1005C00008000A09040100010301020009211101C8
:1005D0000001224D000705820308000A09040200F9
:1005E0000103000000092111010001223600070566
:1005F000830308000A090403000103000000092125
:1006000011010001223900070584032000011201B5
:10061000100100000008EDFE60600100010203010E
:1006200005010906A101050719E029E715002501C3
:1006300095087501810205081901290595057501BF
:1006400091029501750391010507190029F715001D
:10065000250195F875018102C005010980A1018578
:10066000021601002603001A81002A8300751095E6
:10067000018100C0050C0901A101850316010026B6
:100680009C021A01002A9C02751095018100C00588
:10069000010902A1010901A1000509190129051596
:1006A00000250195057501810295017503810105FC
:1006B00001093009311581257F95027508810609E8
:1006C000381581257F950175088106050C0A3802C9
:1006D0001581257F950175088106C0C005010906B1
:1006E000A101050719E029E7150025019508750105
:1006F00081029501750881010508190129059505F3
:10070000750191029501750391010507190029FFF3
:10071000150026FF00950675088100C011241FBE34
:10072000CFEFDAE0DEBFCDBF04B603FE27C0809175
:10073000A6029091A702A091A802B091A9028730C9
:10074000904BA740B04BD1F41092A6021092A70292
:100750001092A8021092A90214BE84B7877F84BFAA
:100760000FB6F894A895809160008861809360002E
:10077000109260000FBEE0E0F8E3099511E0A0E000
:10078000B1E0E4EEFCE502C005900D92AE33B10796
:10079000D9F722E0AEE3B1E001C01D92A63AB2075C
:1007A000E1F70E94FE240C94702E0C9400000C942F
:1007B000F003229A2A9A08950E94EF030C94D90319
:1007C0000C94F303FC018281882331F0611104C091
:1007D00080E991E00E94FF0680E090E0089508958E
:1007E000089581E00895089581E008950C94F1033F
:1007F0000E94F1162FEF84E39CE02150804090404E
:10080000E1F700C000000C94D61EFF920F931F93D7
:10081000CF93DF938C01FC01C081D1818091920143
:10082000811113C08281882349F0CE010E94211CCE
:10083000F82E682FCE010E94C61B04C0CE010E9474
:10084000F51BF82EBE018F2D04C0CE010E94211C85
:10085000BE010E947707EC01B8010E94F6038823CD
:1008600009F46DC2B801CE010E940D0A882309F473
:1008700066C2C23CFCE5DF0741F4F80182818823AF
:1008800009F45DC20E94B00D5AC2C33C8CE5D80782
:1008900008F015C1CB3B9CE5D90761F4F8018281D2
:1008A000882309F44CC20E94F21C8272E1F00E947B
:1008B0004F0E45C2CC3BECE5DE07C0F0CE3B9CE5DD
:1008C000D90709F4CDC008F0DFC0CC3BFCE5DF0759
:1008D00009F0CEC0F8018281882309F430C20E9459
:1008E000F21C827221F30E94450E29C2C531FCE53B
:1008F000DF0708F07EC0C2308CE5D80708F452C08C
:10090000F8018281882309F459C00E94511D811188
:1009100002C00E942B1D0E946E1D90E090939702D2
:1009200080939602FE01E350FC45E231F10530F47C
:10093000EA5AFF4F809196020C94082E80919602FD
:10094000816027C0826025C0846023C0806121C08F
:1009500080621FC080641DC080681BC08460886086
:1009600018C08E7F16C08D7F14C08B7F12C08F7E03
:1009700010C08F7D0EC08F7B0CC08F770AC08B7F1D
:10098000877F07C087FB222720F991E0922790FB01
:1009900087F980939602809196020E94721D0E94B0
:1009A000F116CDC1C1159CE5D90781F0C130DC45F8
:1009B000A9F081E08093430180934401C801DF9155
:1009C000CF911F910F91FF900C94F403F801828155
:1009D000882309F4B4C10E94F803B1C1F8018281EF
:1009E000882309F4ACC180912A02816080932A0295
:1009F000A6C1C531FCE5DF0739F50E94F21C282F9E
:100A0000F80182814091020150910301882379F01D
:100A10002A7A91E009F490E090933E01911102C08E
:100A200069E201C065E3CA010E94DC1D0AC0809131
:100A30003E01811102C069E201C065E3CA010E9462
:100A4000E71D0E94BF1C7BC1CA3BDC4509F0B1CF4A
:100A5000F8018281882309F472C10E948C0E6FC153
:100A6000F8018281882309F46AC10E94410D67C19F
:100A7000CD3BDC4509F09DCFF8018281882309F444
:100A80005EC10E94290D5BC1F8018281C03CFCE57A
:100A9000DF0731F4882309F452C10E947B0D4FC156
:100AA000C13CDC4530F4882309F449C10E94600D43
:100AB00046C1882309F443C10E94950D40C1C93C39
:100AC000ECE5DE0749F4F8018281882309F437C197
:100AD00088E10E94CA0D33C1CA3CFCE5DF0708F07B
:100AE00088C0C53C8CE5D807B1F4F8018281882321
:100AF00009F425C10E94F90B663071058105910545
:100B000040F00E94F90B683071058105910508F4E9
:100B1000EACE86E0DECFC63C9CE5D90728F5C33C8B
:100B2000ECE5DE0739F4F8018281882309F407C176
:100B300081E0CFCFC43CDC4509F03BCFF801828196
:100B4000882309F4FCC00E94F90B6230710581050D
:100B5000910540F00E94F90B653071058105910502
:100B600008F4C1CE82E0B5CFF8018281C73CFCE534
:100B7000DF07A1F4882309F4E2C00E94F90B6F306B
:100B800071058105910540F00E94F90B64317105F2
:100B90008105910508F4A7CE8FE09BCFC83CDC45CA
:100BA000A0F4882309F4CBC00E94F90B69307105C9
:100BB0008105910540F00E94F90B6E3071058105A9
:100BC000910508F490CE89E084CF882309F4B7C05A
:100BD0000E94F90B653171058105910540F00E9475
:100BE000F90B673171058105910508F47CCE85E12B
:100BF00070CFCC3CECE5DE0739F5F8018281882323
:100C000061F0109244010E947A1E909342018093F9
:100C1000410180E20E94F11392C080914401811150
:100C20000FC080914101909142010E94861E883C34
:100C3000910530F487E20E949B1287E20E94921392
:100C400080E20E94F8137BC0CD3CFCE5DF0708F092
:100C500041C0CA3C8CE5D807B1F4F80182818823F1
:100C600009F46DC00E94F90B693171058105910588
:100C700040F00E94F90B623271058105910508F47C
:100C800032CE89E126CFCB3CDC4509F092CEF8018B
:100C90008281882351F0109243010E947A1E909322
:100CA000400180933F0182E0B5CF809143018111E3
:100CB0000FC080913F01909140010E94861E883CA8
:100CC000910530F486E20E949B1286E20E94921304
:100CD00082E0B7CFC03DECE5DE0731F4F801828158
:100CE000882369F180E009C0C13DFCE5DF0741F4DC
:100CF000F8018281882319F182E00E949C251FC09F
:100D0000CD3CDC4509F055CEF8018281811179CFC7
:100D100080914401811194CF8091410190914201D1
:100D20000E94861E883C910508F08ACF80E20E94CE
:100D3000F81388E20E949B1288E20E94921380E0DE
:100D4000DF91CF911F910F91FF900895CF93282F9E
:100D500030E0F901ED59FC4FC491F901ED51FC4F20
:100D60002491222359F081EE0E949B128C2F0E9425
:100D70009B128C2F0E94921381EE04C08C2F0E9434
:100D80009B128C2FCF910C9492130F931F93CF93A0
:100D9000DF93EC01062FFE018491882359F19E0117
:100DA0002F5F3F4F813041F4E901F9011491812F08
:100DB0000E949B12812F0DC0823031F4E901F901AC
:100DC00084910E949B120AC0833031F4E901F90139
:100DD00084910E94921302C00E94A6062196802F41
:100DE0008823C9F2EFE9FFE03197F1F700C0000076
:100DF0008150F6CFDF91CF911F910F91089560E060
:100E00000C94C5060C94D703CF92DF92EF92FF9219
:100E1000863030F4811105C0909180009F7D04C020
:100E200085E090918000906290938000282F30E0C0
:100E3000AFEFBFEF0E940E2E25E030E040E050E023
:100E40000E94E62D2C3784E138074105510530F426
:100E5000C90169E070E00E94BE2D29C0DA01C90114
:100E60008A50974DAF4FBF4F6627782F892F9A2F03
:100E700025EF38E241E050E00E94E62D69017A0159
:100E8000CA01B9010E94AE2D9B01AC01C701B60198
:100E90000E94AE2DBB27A92F982F872F009721E006
:100EA000A207B10511F0BC0102C06FEF7FEF709394
:100EB0008B0060938A00FF90EF90DF90CF900895B1
:100EC000269A2E9882E28093800089E180938100A7
:100ED0008FEF9FEF90938700809386000C9483227E
:100EE0000E9460070C94DC030C94E00308959FE0DB
:100EF000799FF00111249BE4899FE00DF11D1124DD
:100F0000E60FF11DEE0FFF1FEF55FE4F85919491F7
:100F10000895880F991FFC01ED59FB4F859194911D
:100F20000895CF93DF930E9477070E946C09EC012C
:100F3000811521E5920708F042C0811530E593073D
:100F400008F01EC1883E910500F5803E910508F02D
:100F5000BFC1883A910570F4853A910508F09DC0AB
:100F60008130910509F4B4C108F46BC1049708F00D
:100F7000AFC167C18D3B910508F49AC0803C9105D3
:100F800008F45FC1805C9109EBC0811540E39407D0
:100F900080F4811550E2950708F0E1C0803F91058B
:100FA00008F44FC18F3F910511F008F091C1D06551
:100FB0008FC1811560E4960708F0DFC0D5C0C11568
:100FC00089E5D80740F5C11528E5D20708F025C105
:100FD000C11534E5D30778F4C11543E5D40708F00B
:100FE00001C1C11552E5D50708F0E6C0DC2FCC27BA
:100FF000C16FD06A6DC1C11565E5D60708F408C197
:10100000C11586E5D80708F01CC1CF71DD27DC2F9C
:10101000CC27D0625DC1C53B2CE5D20709F408C1DD
:10102000D8F4C33B4CE5D40709F4FCC008F0FDC07C
:10103000C1156AE5D60708F004C18C2F8F70806E49
:1010400090E0906A24E0D695C7952A95E1F7CF7095
:101050009C013C2BE9013CC1C83B8CE5D80709F455
:10106000EDC060F4C63B3CE5D30709F4E4C0C73BE0
:10107000DC4509F0E6C0C0E0D2ED2AC1CE019056B1
:101080008115904208F0DDC08D2F8F710E94E90913
:10109000DD27D0628F71D82B1BC1853A910509F4E9
:1010A000D3C0863A910509F0D2C0C2E8D0E410C19D
:1010B000883A910509F4CEC0893A910509F4CDC06A
:1010C0008A3A910509F4CCC08B3A910509F4CBC05A
:1010D0008C3A910509F4CAC08B3B910509F4C9C04B
:1010E0008C3B910509F4C8C08D3A910509F4C7C03D
:1010F000803B910509F4C6C08E3A910509F4C5C03C
:101100008F3A910509F4C4C0813B910509F4C3C02D
:10111000823B910509F4C2C0833B910509F4C1C02B
:10112000843B910509F4C0C0853B910509F4BFC01B
:10113000863B910509F4BEC0873B910509F4BDC00B
:10114000883B910509F4BCC0893B910509F4BBC0FB
:101150008A3B910509F4BAC0C0E0D4E4B9C09F70DD
:101160000E948907EC01B4C09927D3FF03C0EC01AA
:10117000D86CAEC0EC01D06CABC0DF70D06AA8C038
:10118000282F237081E090E002C0880F991F2A95D4
:10119000E2F79C689E0174E0369527957A95E1F711
:1011A0002370922BCF70C695C69560E2C69FE00172
:1011B0001124C82BD92B8CC02C2F2695269580E284
:1011C000289F90011124C370DD2781E090E0AC01DD
:1011D00002C0440F551FCA95E2F7EA01C22BD32B78
:1011E000DC6876C02C2F2695269580E2289F9001FA
:1011F0001124C370DD2781E090E0AC0102C0440FF0
:10120000551FCA95E2F7EA01C22BD32BDA6860C0FA
:10121000DC2FCC27C46FD06A5BC0DC2FCC27C06F1B
:10122000D06A56C0C0E0D4ED53C0C0E0D5ED50C088
:10123000C0E0D1ED4DC0C0E0D0ED4AC0C0E0D3ED7C
:1012400047C0C0E0D0E044C0C1E8D0E441C0C3E83A
:10125000D0E43EC0C2EED4E43BC0C9EED4E438C012
:10126000CAEED4E435C0C5EBD4E432C0C6EBD4E456
:101270002FC0C3EBD4E42CC0C4EBD4E429C0C7EB2B
:10128000D4E426C0CCECD4E423C0CDECD4E420C01C
:10129000C3E8D5E41DC0CAE8D5E41AC0C2E9D5E464
:1012A00017C0C4E9D5E414C0C1E2D6E411C0C3E25A
:1012B000D6E40EC0C4E2D6E40BC0C5E2D6E408C052
:1012C000C6E2D6E405C0C7E2D6E402C0CAE2D6E46C
:1012D000CE01DF91CF9108958238910549F1B0F4A4
:1012E0008133910509F458C048F48932910509F415
:1012F0004EC08A32910509F454C008958533910592
:1013000009F440C08933910599F00895833E910511
:1013100029F138F4803E910591F0823E9105A1F0CB
:101320000895863E9105F9F0873E910531F10895C3
:101330002091960220FD3AC021FD38C00895809189
:10134000960280FD35C032C08091960282FF32C085
:101350008091960284FD30C083EE39C08091960260
:1013600082FD28C0F5CF8091960283FF27C080912F
:10137000960284FD21C087EE2AC08091960283FDEB
:101380001DC0F5CF8091960285FD1AC01BC08091CB
:10139000960285FD17C014C08091960286FD14C088
:1013A00015C08091960286FD11C00EC080EE0FC060
:1013B00089E30DC082EE0BC080E009C086EE07C055
:1013C00089E205C085E303C08AE201C081E390E0C1
:1013D00008959091960292FF0DC0282F2871283011
:1013E00019F4877F846006C0282F2471243011F4FB
:1013F0008B7F886093FF0DC0282F2871283119F446
:10140000877E846106C0282F2471243111F48B7EDD
:10141000886194FD877E089508950F931F93CF935D
:10142000FB012281211102C0C1E041C08C01C091A9
:101430005201C11125C086319C45B1F70E940C0AAA
:1014400081E0809352010E947A1E90935101809313
:1014500050011092450110924701109246011092DE
:1014600049011092480110924B0110924A011092CA
:101470004D0110924C0110924F0110924E0117C075
:1014800080915001909151010E94861E883C9105E7
:1014900058F690914501E92FF0E0EE0FFF1FEA5B4F
:1014A000FE4F118300839F5F90934501C0E08C2F16
:1014B000CF911F910F91089585B7806885BF85B73B
:1014C000806885BFA4E2B1E041E050E025E02A0F4A
:1014D0008D91E82FE295EF70F0E031A18F70BA01A5
:1014E00002C0660F771F8A95E2F7CB01962F909581
:1014F000932391A392A1892B82A32A13E9CFA5E17B
:10150000B1E041E050E02FE02A0F8D91E82FE29505
:10151000EF70F0E031A18F70BA0102C0660F771F43
:101520008A95E2F7CB01962F9095932391A392A1F0
:10153000892B82A32A13E9CFEDE5F1E0A3E5B1E021
:10154000119211921D921D9271E0E736F707C1F7D3
:101550000C9470072F923F925F926F927F928F92BE
:101560009F92AF92BF92CF92DF92EF92FF920F9332
:101570001F93CF93DF9324E2C22E21E0D22E03E506
:1015800011E0E801EE24E394F12C662463945E01FB
:101590008880998019821882D6018D916D01E82F7B
:1015A000E295EF70F0E021A18F70A70102C0440F17
:1015B000551F8A95E2F7CA01242B21A322A1742E7C
:1015C0007094272122A350EA5A95F1F795E1292E2C
:1015D00091E0392E20E030E0D1017D911D01472FAF
:1015E00042954F7050E0DA0190965C9048815981A5
:1015F0007F70D70102C0AA0FBB1F7A95E2F7BD0129
:10160000652141F4B701022E02C0660F771F0A94CC
:10161000E2F702C060E070E0462B572B5983488305
:101620002F5F3F4F2F303105B9F691A1792271A27A
:1016300092A1892B82A32296F5018081918188163F
:10164000990641F0609267010E947A1E90936901A9
:1016500080936801F1E0CD35DF0709F098CF8091E4
:1016600067018823B1F080916801909169010E941F
:10167000861E069770F0EDE5F1E0D8018D919D9101
:101680008D0181939193B1E00D351B07B1F7109255
:1016900067010E94020781E0DF91CF911F910F91B6
:1016A000FF90EF90DF90CF90BF90AF909F908F9082
:1016B0007F906F905F903F902F900895E82FF0E01B
:1016C000EE0FFF1FE35AFE4F808191810895089528
:1016D000EF92FF920F931F93CF93DF93E90166235D
:1016E00009F44BC0242F30E0EFEFF0E0E61BF109E6
:1016F000B901E69F9001E79F300DF69F300D112450
:10170000232F8B01031B11095CE3E52EF12CB7019C
:101710000E94BE2DFB01BC01069FC001079F900DDA
:10172000169F900D1124B7010E94BE2DE230F105E5
:10173000B1F040F4309779F0319711F5832F242FD1
:10174000461B21C0E430F105A1F068F03597C1F4E3
:10175000842F861B18C0832F262F230F14C0862F9B
:10176000830FE42F03C0E42FE61B842F432F2E2F7B
:101770000AC0842F462F430F06C0842F242F03C096
:1017800080E020E040E0E42FF0E0E358FB4F44919C
:10179000E22FF0E0E358FB4F9491E82FF0E0E3589C
:1017A000FB4FE49149839883EA83DF91CF911F91A6
:1017B0000F91FF90EF90089588E090E00C94302E08
:1017C000AB01BC0188E090E00C944E2EE8E5F2E01D
:1017D00083E08083109259028FEF8283838360912C
:1017E00058027091590280915A0290915B020C94B8
:1017F000E00B6091580260FF06C066956F7370E061
:1018000080E090E0089560E070E0CB010895809161
:10181000580280FF06C060E170E080E692E00C9420
:10182000441180E090E0FC01E05AFD4F11821082EB
:101830001282039680339105B1F7EDCF9091580253
:1018400090FF0FC020E030E0F901E05AFD4F8183A6
:10185000608342832D5F3F4F20333105A9F70C94FD
:10186000070C0895EF92FF920F931F93CF93DF938E
:1018700000D01F92CDB7DEB70091580210915902E7
:1018800020915A0230915B0200935C0210935D023A
:1018900020935E0230935F022091580220FF21C006
:1018A000042FF62EE92E182F9E012F5F3F4F0E9426
:1018B000680B80915C0210FB87F980935C0216959F
:1018C00080915D028078182BE0FA17F910935D0281
:1018D000F0925E0200935F024B8169818A810E94CF
:1018E0001E0C0F900F900F90DF91CF911F910F91D1
:1018F000FF90EF9008958F929F92AF92BF92CF92F8
:10190000DF92EF92FF920F931F93CF93DF93EC013F
:10191000062F142F8091580280FF8EC0982F9E773B
:10192000923021F4CE010E94320C5CC0E82FE69583
:10193000EF739EE39E0F9F73943018F410915B0237
:1019400051C09AE39E0F9F73993070F4881F8827C7
:10195000881F90915902292F220FC22FC82B97FB65
:10196000992790F9D92F3EC087E28E0F8F738A3066
:10197000C8F5F0E07997E0FD02C021E001C02FEF4B
:10198000EE7FED59FB4F85919491AC0184E0569523
:1019900047958A95E1F724036001259FD00C112417
:1019A0004E0188E9881A8EEF980A90E6E92E92E0B7
:1019B000F92E28E6A22EBB24B394C401B5010E94DF
:1019C000BE2D9701412F602F0E94680B8C0C9D1C2F
:1019D00093E0E90EF11C80E9E81682E0F80669F769
:1019E0000E94070C809158029C2FC0FB87F98093BE
:1019F00058029695809159028078892BD0FB87F9FF
:101A00008093590200935A0210935B02609158022E
:101A10007091590280915A0290915B02DF91CF91AF
:101A20001F910F91FF90EF90DF90CF90BF90AF90FC
:101A30009F908F900C94E00BDF91CF911F910F91AD
:101A4000FF90EF90DF90CF90BF90AF909F908F90DE
:101A50000895E8E5F2E02081221F2227221F30911D
:101A60005902432F440F842F822B37FB992790F97B
:101A7000049668E671E00E94D22D438162810C9445
:101A80007B0C20915802221F2227221F30915902DD
:101A9000432F440F842F822B37FB992790F98430F2
:101AA00091051CF48C599E4F01C0049768E671E0C3
:101AB0000E94D22D40915B0260915A020C947B0CE3
:101AC00060915A02862F90E08C3F910514F46C5F70
:101AD00001C06FEF80915802881F8827881F90915E
:101AE0005902292F220F97FB992790F940915B0209
:101AF000822B0C947B0C60915A02862F90E0049705
:101B000014F0645001C060E080915802881F88275B
:101B1000881F90915902292F220F97FB992790F93E
:101B200040915B02822B0C947B0C40915B02842FD2
:101B300090E08C3F910514F44C5F01C04FEF809111
:101B40005802881F8827881F90915902292F220F39
:101B500097FB992790F960915A02822B0C947B0C89
:101B600040915B02842F90E0049714F0445001C030
:101B700040E080915802881F8827881F9091590261
:101B8000292F220F97FB992790F960915A02822BF7
:101B90000C947B0C9091580290FF42C09178811177
:101BA00002C0926007C0833210F0946403C08F7348
:101BB000880F982B909358026091580270915902A7
:101BC00080915A0290915B020E94E00B8091580232
:101BD000982F9E77923019F410927F0110C0982FA1
:101BE00096959F732EE3290F2F73273120F491E0F0
:101BF00090937F0104C0995D9F739A3068F3881FAA
:101C00008827881F90915902292F220F97FB992727
:101C100090F940915B0260915A02822B0C947B0CEC
:101C2000089580912A02816080932A0281E0809346
:101C300080010E94511D811104C00E942B1D0E9431
:101C4000E60B0E94DC0B609358027093590280935C
:101C50005A0290935B026E7761F40E94E60B0E9439
:101C6000DC0B609358027093590280935A02909350
:101C70005B0281E080937F018091580280FF04C065
:101C800086958F730C94CA0D08958091580286959D
:101C90008F738F5F833208F081E00C94CA0D8091BE
:101CA000580286958F73815009F482E20C94CA0D14
:101CB000CF93DF93C8E5D2E088818160888360910B
:101CC00058027091590280915A0290915B020E94D1
:101CD000E00B888186958F73DF91CF910C94CA0DAC
:101CE000E8E5F2E080818E7F8083609158027091F8
:101CF000590280915A0290915B020E94E00B10926F
:101D00007F012FEF80E792E0215080409040E1F783
:101D100000C000000C94070C8091580280FD0C94C8
:101D2000700E0C94580ECF93C82F80917D01909126
:101D30007E010E94861EEC2FF0E0E758FB4FE491F5
:101D4000F0E08E179F0708F443C00E947A1E90931C
:101D50007E0180937D0160917C0170E080E090E0E5
:101D60000E94AF2B20E030E04FE753E40E94D22ADC
:101D70002BED3FE049E450E40E94D82C0E94452D11
:101D80000E944C2B2BE43AE34EE25FE30E94652A6B
:101D900020EF3BEF48ED52E40E94D82C0E947E2BAE
:101DA000462F80915802881F8827881F90915902DA
:101DB000292F220F97FB992790F960915A02822BC5
:101DC0000E94320C80917C0190E0019680937C010E
:101DD000CF910895CF93C82F80917A0190917B0184
:101DE0000E94861EEC2FF0E0EA58FB4FE491F0E0F1
:101DF0008E179F07E8F00E947A1E90937B018093D4
:101E00007A0140915B0260915A0280917801909131
:101E100079010E94320C80917801909179010196AC
:101E200068E671E00E94BE2D90937901809378015D
:101E3000CF910895CF92DF92FF920F931F93CF938C
:101E4000DF93F82E80917601909177010E94861E93
:101E5000EF2DE695F0E0ED58FB4FE491F0E08E17A2
:101E60009F07F0F10E947A1E90937701809376018C
:101E700000E612E0C0E0D0E088E6C82EDD24D3946E
:101E800080917401909175018C0F9D1FB6010E9485
:101E9000BE2D980140915B0260915A020E94680B2E
:101EA00066960D5F1F4FC03681E0D80749F70E9444
:101EB000070C2091740130917501F0FE0BC0C9012F
:101EC000019668E671E00E94BE2D909375018093A3
:101ED000740106C0215031093093750120937401BB
:101EE000DF91CF911F910F91FF90DF90CF900895D8
:101EF000AF92BF92CF92DF92EF92FF920F931F9318
:101F0000CF93DF93C82F80FF02C01FEF01C011E005
:101F100080917201909173010E94861EC695EC2FEC
:101F2000F0E0E059FB4FE491F0E08E179F0708F4D2
:101F300065C00E947A1E909373018093720120E61F
:101F4000C22E22E0D22E32E6E32E32E0F32EC0E0A3
:101F5000D0E0F70131971082F6011082F70110826C
:101F600094E0A92EB12C00E080917101800F87FDD3
:101F7000805F082E000C990BC817D907E9F48091EF
:101F80005B028A9DA0018B9D500D112455954795AC
:101F90005595479580915802881F8827881F9091F2
:101FA0005902592F550F97FB992790F99601609187
:101FB0005A02852B0E94680B010FF1E0AF1AB1089D
:101FC00099F6219683E0C80ED11CE3E0EE0EF11CD9
:101FD000C031D10509F0BDCF0E94070C809171017D
:101FE000113031F4811102C08FE006C0815004C06D
:101FF00090E001968F70992780937101DF91CF91C6
:102000001F910F91FF90EF90DF90CF90BF90AF9016
:102010000895EF92FF920F931F93CF93DF93C82FF2
:1020200080916F01909170010E94861EEC2FF0E06C
:10203000E359FB4FE491F0E08E179F0708F464C06A
:102040000E947A1E9093700180936F0180E090E06F
:10205000FC01E05AFD4F11821082128203968033F8
:102060009105B1F780E6E82E82E0F82E02E612E054
:10207000C0E0D0E080916E01082E000C990BC817CB
:10208000D907ECF080910101082E000C990B8C17F8
:102090009D07ACF080915802881F8827881F909177
:1020A0005902592F550F97FB992790F997014091A5
:1020B0005B0260915A02852B0E94680B07C0F801F1
:1020C00031971082F7011082F80110822196F3E017
:1020D000EF0EF11C0D5F1F4FC031D10559F60E9464
:1020E000070C8091000190916E01980F90936E0102
:1020F00020910101280F20930101121614F49F3042
:102100001CF0819580930001DF91CF911F910F9179
:10211000FF90EF900895EF92FF920F931F93CF934C
:10212000DF9380916C0190916D010E94861E883E24
:102130009340D0F10E947A1E90936D0180936C01C0
:10214000C0916A01D0916B012196C170DD27D093B7
:102150006B01C0936A0180E6E82E82E0F82E10E061
:1021600008E7812F8695FE01E80FF11DCF018170F0
:102170009927970140915B0260915A02FC010E9FE2
:10218000C0010F9F900D11240E94680B1F5FF3E0A8
:10219000EF0EF11C103129F7DF91CF911F910F91B4
:1021A000FF90EF900C94070CDF91CF911F910F914E
:1021B000FF90EF90089580917F01882391F1909195
:1021C0005802892F86958F732EE3280F2F732430A2
:1021D00018F482500C94930E2AE3280F2F732330A7
:1021E00018F486500C94EA0E27E3280F2F7326303C
:1021F00018F489500C941A0F21E3280F2F732630FE
:1022000018F48F500C94780F2BE2280F2F73233083
:1022100018F485510C9409109E77903311F40C94A6
:102220008B1008952EB1342F309523233EB1432BCC
:102230003FB7F894FC01680F791FE617F70789F09C
:10224000819198E04EB9000000C087FF2EB9880F39
:10225000000000C000C000C02EB900C09A9591F7E0
:10226000ECCF3FBF08952DB1242B2DB99B01220F38
:10227000331F620F731F0E94121187EC90E00197C9
:10228000F1F700C00000089544E00C9433119093DE
:102290008601809385010895E0918501F091860182
:1022A000309721F00190F081E02D099480E00895AD
:1022B000E0918501F0918601309721F00280F38151
:1022C000E02D09940895E0918501F0918601309701
:1022D00021F00480F581E02D099408952091830177
:1022E000309184018217930771F090938401809359
:1022F0008301E0918501F0918601309721F00680FD
:10230000F781E02D09940895209181013091820197
:102310008217930771F09093820180938101E0917D
:102320008501F0918601309721F00084F185E02D40
:102330000994089508950C949A1181E008950E94DB
:10234000711E0E945C0A0E94461F0E9483220C9408
:10235000110E4F925F927F928F929F92AF92BF9297
:10236000CF92DF92EF92FF920F931F93CF93DF9361
:10237000CDB7DEB72A970FB6F894DEBF0FBECDBF3C
:102380000E94AA0A0E949D11811111C08FEF8983BA
:102390008A831B820E947A1E8160782F9D838C83A2
:1023A00049815A816B818D810E94671257C098E8DC
:1023B000C92E91E0D92E00E010E0AA24A394B12CFC
:1023C000702E802F0E945E0B4C01F60141905190BF
:1023D0006F01482659264114510431F40F5F1F4FF5
:1023E0000530110569F7D2CF80912A0281FD0E9444
:1023F000670B20E030E07501022E02C0EE0CFF1CDE
:102400000A94E2F7C70184219521892B09F12E83D3
:102410007F828E209F2091E0892809F490E09887A0
:102420000E947A1E8160782F9A8789874E815F810A
:1024300068858A850E946712000F111FF801E8570E
:10244000FE4F80819181E826F926F182E08206C064
:102450002F5F3F4F2F30310571F6C0CF0E94E92129
:10246000109187010E944C111817D9F00E944C114D
:10247000809387012A960FB6F894DEBF0FBECDBFBA
:10248000DF91CF911F910F91FF90EF90DF90CF9050
:10249000BF90AF909F908F907F905F904F900C94E3
:1024A00074072A960FB6F894DEBF0FBECDBFDF913A
:1024B000CF911F910F91FF90EF90DF90CF90BF9041
:1024C000AF909F908F907F905F904F900895CF93A3
:1024D000DF93CDB7DEB72B970FB6F894DEBF0FBEF4
:1024E000CDBF4F83588769877A878B87DE01119626
:1024F00086E0FD0111928A95E9F785E0FE013796A5
:1025000001900D928A95E1F749815A816B817C8116
:102510008D819E810E9498192B960FB6F894DEBF8C
:102520000FBECDBFDF91CF910895FC0180819181D5
:102530000E94601C0895882309F4F3C0682F823834
:10254000C1F40E944C1181FDECC069E3809102014D
:10255000909103010E94DC1D0E94BF1C2FEF81EEB1
:1025600094E0215080409040E1F700C0000069E312
:1025700019C08338F9F40E944C1180FDD2C063E584
:1025800080910201909103010E94DC1D0E94BF1CFA
:102590002FEF81EE94E0215080409040E1F700C0A1
:1025A000000063E580910201909103010E94E71D04
:1025B0000C94BF1C8438C1F40E944C1182FDB1C040
:1025C00067E480910201909103010E94DC1D0E944A
:1025D000BF1C2FEF81EE94E0215080409040E1F746
:1025E00000C0000067E4DECF8CEF860F813A38F43C
:1025F00080910201909103010E94DC1DD9CF80E2FD
:10260000860F883048F4677081E001C0880F6A95B2
:10261000EAF70E94F51CCCCF8BE5860F833070F46F
:10262000653A29F0663A31F083E890E005C081E828
:1026300090E002C082E890E00C946E1188E5860F6D
:10264000853108F06EC0683A61F1693A69F16A3A19
:1026500071F16B3A79F16C3A81F16B3B89F16C3B2A
:1026600091F16D3A99F1603BA1F16E3AA9F16F3A9F
:10267000B1F1613BB9F1623BC1F1633BC9F1643B2C
:10268000D1F1653BD9F1663BE1F1673BE9F1683B8C
:10269000F1F1693BF9F16A3B09F43FC080E090E059
:1026A0003EC082EE90E03BC089EE90E038C08AEEFA
:1026B00090E035C085EB90E032C086EB90E02FC013
:1026C00083EB90E02CC084EB90E029C087EB90E096
:1026D00026C08CEC90E023C08DEC90E020C083E815
:1026E00091E01DC08AE891E01AC082E991E017C02C
:1026F00084E991E014C081E292E011C083E292E0AB
:102700000EC084E292E00BC085E292E008C086E24F
:1027100092E005C087E292E002C08AE292E00C9467
:1027200084110895882309F45BC0682F823879F4F6
:102730000E944C1181FF54C069E380910201909185
:1027400003010E94DC1D0E94BF1C69E310C0833896
:10275000B1F40E944C1180FF43C063E580910201F7
:10276000909103010E94DC1D0E94BF1C63E58091D3
:102770000201909103010E94E71D0C94BF1C843854
:1027800079F40E944C1182FF2BC067E48091020112
:10279000909103010E94DC1D0E94BF1C67E4E7CFFB
:1027A0008CEF860F813A18F380E2860F883048F468
:1027B000677081E001C0880F6A95EAF70E94FB1CF0
:1027C000DCCF8BE5860F833020F480E090E00C9422
:1027D0006E11685A653120F480E090E00C94841109
:1027E0000895882321F00E94F51C0C94BF1C0895C5
:1027F000882321F00E94FB1C0C94BF1C08954F926B
:102800005F926F927F92AF92BF92CF92DF92EF92E0
:10281000FF920F931F93CF93DF931F92CDB7DEB735
:102820007C01A72EFC01058102950F7012811123F6
:1028300021F069830E94121D698169830E94B81C7E
:102840006981882381F0112371F080E2860F88303E
:1028500050F082E00E94A11C0E94B81C91E0B82EAA
:10286000B926698101C0B12CCA2CC2948FE0C8225C
:10287000D12CF601E859FF4F0C94082E8A2D807F49
:102880000A2D0F70882311F00295007F1123C1F0EB
:10289000002309F4DDC180E2860F883010F0611159
:1028A00005C0802F69830E94F51C04C0802F6983B6
:1028B0000E94051D698169830E94BF1C6981C8C18E
:1028C000862F69830E9492136981002309F408C24C
:1028D00080E2860F883010F0611104C0802F0E94C2
:1028E000FB1C03C0802F0E940B1D0E94BF1CF8C15F
:1028F0008A2D807F9A2D9F70803211F4892F03C01A
:10290000892F8295807F662319F06130B1F01FC056
:10291000112349F0002309F452C1013009F04FC1DD
:102920000E94251DDDC1002319F0013009F4D8C132
:1029300089830E94281D898148C1112321F0063016
:1029400008F0CEC13CC1053008F0CAC13EC1112318
:1029500051F0002309F433C1F701958190FF78C14C
:102960009F7095832CC1002309F42FC182C18A2D49
:1029700086958695837090E0009719F0019761F035
:10298000AFC1112321F0862F9A2D937002C080E0F1
:1029900090E00E946E11B4C1112321F0862F9A2D70
:1029A000937002C080E090E00E948411A9C11123BD
:1029B000F9F0653F51F0663F71F0643FA9F48091F2
:1029C00090029091910281600BC080919002909151
:1029D0009102826005C08091900290919102846082
:1029E0009093910280939002862F0E94F1201EC046
:1029F000653F51F0663F71F0643FA9F48091900209
:102A0000909191028E7F0BC08091900290919102E3
:102A10008D7F05C080919002909191028B7F909361
:102A2000910280939002862F0E9459210E94DE21FC
:102A300067C18A2D837009F052C011115DC1862FC4
:102A4000829586958770880F880F962F9F70492EE4
:102A5000512C612C712C082E04C0440C551C661C92
:102A6000771C0A94D2F764FF14C00FE010E020E056
:102A700030E0B901A80104C0440F551F661F771F3D
:102A80008A95D2F7CB01BA016095709580959095A3
:102A900003C060E070E0CB012A2D269526952370B7
:102AA00030E02230310569F02330310589F06429A6
:102AB0007529862997292130310571F00E94DB1A8A
:102AC0001BC164297529862997290E94ED1A14C112
:102AD0000E94DB1AC301B2010E94C91A0DC1112361
:102AE00019F08A2D817001C08695882309F404C1EC
:102AF000862F829586958770880F880F962F9F70F6
:102B0000492E512C612C712C082E04C0440C551CEC
:102B1000661C771C0A94D2F764FF14C00FE010E023
:102B200020E030E0B901A80104C0440F551F661F22
:102B3000771F8A95D2F7CB01BA0160957095809581
:102B4000909503C060E070E0CB012A2D2695269574
:102B50002370422F50E04230510569F04330510557
:102B600089F064297529862997294130510571F02A
:102B70000E94A11BC1C064297529862997290E943A
:102B8000B31BBAC00E94A11BC301B2010E948F1BDC
:102B9000B3C0862F90E0FC01E05EF109E531F1055C
:102BA00008F052C0E858FF4F0C94082E062F0F7003
:102BB0008A2D8F71112331F00E94281B802F0E94D3
:102BC000F1138EC00E94491B802F0E94F81388C009
:102BD000112341F0053008F083C08A2D8F710E94C7
:102BE0006E1B7EC0063008F07BC0F7CF112339F092
:102BF0008A2D8F710E94281B73C01123C9F38A2D5F
:102C00008F710E94491B6CC0112329F08A2D8F718E
:102C10000E94131B65C00E940E1B62C0112351F05D
:102C20001A2D1F71812F0E94281B63E0812F0E94A3
:102C3000981C56C081E00E94A11C023008F450C0CC
:102C400082E00E94A11C4CC0112331F0002381F2CC
:102C5000862F0E949B1244C0002389F2693349F4F5
:102C60005FEF77EE83E0515070408040E1F700C0A5
:102C70000000862F0E94921333C04A2D4F70C70167
:102C80000E94E2030E943C1A3BC0111139C08A2DF8
:102C90008F7090E08230910599F03CF4009769F0D4
:102CA0000197F1F40E94BD222BC08430910571F090
:102CB00054F00597A9F480E00AC00E94A02220C029
:102CC0000E94D9221DC00E94F3221AC085E00E94F2
:102CD000162316C04A2D4F70C7010E94760710C0F8
:102CE00098E0C916D10441F05CF0FAE0CF1AD1089F
:102CF00022E0C216D10420F40E944C110E947407F5
:102D0000BB2001F10E94941C80FD1CC0F7011282BF
:102D10000E948E1C0E94281BC7010E94B2160E94AE
:102D20008E1C0F90DF91CF911F910F91FF90EF902C
:102D3000DF90CF90BF90AF907F906F905F904F905B
:102D40000C94491B0F90DF91CF911F910F91FF9031
:102D5000EF90DF90CF90BF90AF907F906F905F909B
:102D60004F9008950F931F93CF93DF93EC018881C9
:102D700099812B813C81232BB9F09F3F11F48F3F28
:102D800099F0CE010E940504882371F06881798151
:102D90008A810E946B1C8C010E94C51B0E94C61A6E
:102DA000B801CE010E94FF13DF91CF911F910F91C7
:102DB00008950E94121D0E94221D8091020190918F
:102DC00003010E94F21D0E94BF1C0E9477220E94F4
:102DD000DE2180E090E00E946E1180E090E00C9493
:102DE00084110E94021D0C94D9160E94601CE92FC8
:102DF000E295EF70F0E03297EE30F105B0F4E35772
:102E0000FF4F0C94082E803F91F018F4803E68F438
:102E10000EC0843F51F40BC0803E48F0813F29F43E
:102E200006C093FB882780F9089580E0089581E02B
:102E30000895CF93DF9300D000D01F92CDB7DEB7B7
:102E40000F900F900F900F900F90DF91CF910895FA
:102E5000CF93DF9300D000D000D0CDB7DEB7269659
:102E60000FB6F894DEBF0FBECDBFDF91CF910895AE
:102E70001F93CF93DF93C091930116E0809194014B
:102E8000C81799F0D0E01C9FF0011D9FF00D112490
:102E9000EB56FE4F4081518162817381848195811F
:102EA0000E9428172196C770E9CFDF91CF911F911B
:102EB00008954091C5015091C6016091C70170917C
:102EC000C8018091C9019091CA010C942817809182
:102ED000CA0182958F7009F054C08091C701882380
:102EE00009F44FC080919301A09194016091C501B4
:102EF0007091C6014091C8015091C901B6E08A178E
:102F000009F43FC090E041155105C1F17F3F11F434
:102F10006F3FA1F1B89FF001B99FF00D1124EB565E
:102F2000FE4F218172132AC02081621327C02281A3
:102F3000211124C0238134812417350710F4215036
:102F40003109241B350B283C3105C0F42091CA01FE
:102F50002F7020612093CA0126E0289FF001299F4D
:102F6000F00D1124E656FE4F80818F7080618083C2
:102F700085EC91E00E94B2160C9438170196877088
:102F8000BECF0895CF92DF92EF92FF920F931F93DF
:102F9000CF93DF93CDB7DEB762970FB6F894DEBF5D
:102FA0000FBECDBF8C0185E0F801DE011D960190BA
:102FB0000D928A95E1F7D8014C9111965C91119789
:102FC00012966C9112971396CD90DC9014973091D5
:102FD000C5017091C6018091C8019091C901009707
:102FE00009F46BC17F3F19F43F3F09F466C1E090DB
:102FF000C701EE2009F4C0C02091CA01C816D90645
:1030000028F0F601E81BF90BCF0104C080959095DC
:103010008C0D9D1DFF24F394883C910578F0F12CD4
:10302000207F09F0C6C07C2DD98AC88A89890E9470
:10303000191785EC91E00E94B216B1C0822F807FF3
:1030400009F046C0751314C0341312C0611110C0CA
:103050002F7020612093CA010E94591785EC91E0DE
:103060000E94B2168091CA01D80115968C932EC089
:10307000CD2819F15F3F11F44F3FF9F0F62E6111A1
:103080001CC0809193012091940136E0821709F4CD
:103090005AC090E0389FF001399FF00D1124EB5693
:1030A000FE4F7181571306C07081471303C07281B0
:1030B000711103C001968770E9CFF62E662309F4DB
:1030C00027C18091CA0181608093CA01F12C20C17F
:1030D000751308C0341306C0611104C08091CA0181
:1030E000D801C3C04D875E878D859E856A8B0E94FF
:1030F000F5166A898823E1F16623D1F12091CA018E
:10310000822F82958F7090E0029774F08091C501B4
:103110009091C60198878F831986DB86CA862C8793
:10312000CE0107960E94B21686E0F801A5ECB1E048
:1031300001900D928A95E1F70E9467170E94591736
:10314000FF24F394E5C04D875E878D859E850E94A0
:10315000601C292F22952F7030E0223031050CF0B1
:10316000CBC09F7009F0C5C0805E883008F4D0C025
:10317000C8010E94B216E4CFC816D90608F453C09D
:10318000F601E81BF90BCF01883C910508F450C00B
:10319000F12C7C2DD98AC88A89890E941917E5ECFF
:1031A000F1E086E0DF011D928A95E9F70E94591748
:1031B000AFC0751314C0341312C0611110C08091D8
:1031C000CA01F8018583C8010E94B21686E0E5ECC9
:1031D000F1E0DF011D928A95E9F7FE2C99C04D8739
:1031E0005E878D859E856A8B0E94F5166A89882385
:1031F00009F4BECF662309F4BBCF2091CA01822F08
:1032000082958F7090E002970CF48ECF8091C5016B
:103210009091C6019A8389831B82DD82CC822E83A2
:10322000CE0101967FCF809590958C0D9D1DACCFE2
:10323000F62E662309F49CCF75132EC034132CC0D0
:103240002091CA0120FD1FC0822F82958F70D9F076
:10325000D80115962C9315978F3049F08F5F982FD2
:103260009295907F822F8F70892B15968C93C80131
:103270000E94B21686E0F801A5ECB1E001900D9233
:103280008A95E1F793CF86E0F801A5ECB1E00190D3
:103290000D928A95E1F73CC04D875E878D859E85AE
:1032A0000E94F516811140CF8091CA018160809300
:1032B000CA01C8010E94B2162BC0662309F458CF78
:1032C0004D875E878D859E850E94F516F82E882392
:1032D00009F44ECF86E0F801A5ECB1E001900D9223
:1032E0008A95E1F785EC91E00E9495120E9467179C
:1032F0005DCF811139CF0CC0243031050CF038CFAF
:103300009F7009F431CFF8019581907F09F02CCF9F
:103310008F2D62960FB6F894DEBF0FBECDBFDF9142
:10332000CF911F910F91FF90EF90DF90CF90089574
:103330001F93CF93DF93CDB7DEB72C970FB6F894DA
:10334000DEBF0FBECDBF4F83588769877A878B87D3
:103350009C87CE0107960E94C217882369F08F814F
:1033600098852A853B85232BF1F19F3F09F063C0A7
:103370008F3F09F060C037C086E0FE013796DE015E
:10338000119601900D928A95E1F76F817885EA8513
:10339000FB85309741F17F3F11F46F3F21F1209180
:1033A000940130E0C90101968770992740919301FB
:1033B00050E08417950709F447C069837A83FD8339
:1033C000EC8396E0929FD001939FB00D1124AB56F1
:1033D000BE4FFE01319601900D929A95E1F78093D0
:1033E00094010E94381716E0809193019091940106
:1033F0008917C1F1189FC00111248B569E4F0E945E
:10340000C217882379F1E09193011E9FF0011124E6
:10341000EB56FE4F40815181628173818481958199
:103420000E9428178091930190E001968770992758
:1034300080939301D9CF4F81588569857A858B8593
:103440009C850E942817CFCF0E94F11610929401FC
:1034500010929301E5ECF1E086E0DF011D928A9580
:10346000E9F7C1CF2C960FB6F894DEBF0FBECDBFE3
:10347000DF91CF911F910895EF92FF920F931F93C9
:10348000CF93DF938C01892B09F46CC0F12CEE24CF
:10349000E394E8012196F8018491843740F4843064
:1034A00008F051C0813081F0823019F15BC085375E
:1034B00009F444C0A8F19CE7980F903708F052C077
:1034C0008F770E94921341C00E5F1F4FFE01C4917F
:1034D00080E28C0F883048F4C7708E2D01C0880FB1
:1034E000CA95EAF70E94151D14C08C2F0E949B12EA
:1034F0002DC00E5F1F4FFE01C49180E28C0F8830FB
:1035000058F4C7708E2D01C0880FCA95EAF70E9443
:103510001B1D0E94BF1C1AC08C2F0E94921316C044
:103520000E5F1F4FFE01C491CC2381F08FE99FE015
:103530000197F1F700C00000C150F6CF0E5F1F4F9A
:10354000FE01F49003C00E949B128E018F2D8823F0
:1035500009F49FCFEFE9FFE03197F1F700C00000D9
:103560008150F5CFDF91CF911F910F91FF90EF9098
:10357000089508950E94B91A60930102709302029F
:1035800080930302909304020C94D91608950C942E
:10359000BA1A0F931F930091010210910202209119
:1035A000030230910402602B712B822B932B1F910D
:1035B0000F910C94BA1A0F931F930091010210916E
:1035C00002022091030230910402602371238223BE
:1035D00093231F910F910C94BA1A0F931F9300918C
:1035E000010210910202209103023091040260272F
:1035F0007127822793271F910F910C94BA1A08956F
:103600000C94FF1A0E94001B6093FD017093FE0151
:103610008093FF01909300020C94D91660E070E053
:10362000CB010C94021B0F931F9341E050E060E02C
:1036300070E08A019B0104C0000F111F221F331F7D
:103640008A95D2F7C901B8011F910F910C94021B02
:103650000F931F9341E050E060E070E004C0440F1E
:10366000551F661F771F8A95D2F78091FD019091B3
:10367000FE01A091FF01B09100028A019B01082B7D
:10368000192B2A2B3B2BC901B8011F910F910C94C8
:10369000021B0F931F9341E050E060E070E004C014
:1036A000440F551F661F771F8A95D2F74095509596
:1036B000609570958091FD019091FE01A091FF01B0
:1036C000B09100028A019B01082319232A233B237E
:1036D000C901B8011F910F910C94021B0F931F9306
:1036E00041E050E060E070E004C0440F551F661FE9
:1036F000771F8A95D2F78091FD019091FE01A091EC
:10370000FF01B09100028A019B01082719272A278F
:103710003B27C901B8011F910F910C94021B0F9315
:103720001F930091FD011091FE012091FF01309146
:103730000002602B712B822B932B1F910F910C9405
:10374000021B0F931F930091FD011091FE01209128
:10375000FF013091000260237123822393231F9184
:103760000F910C94021B0F931F930091FD01109178
:10377000FE012091FF01309100026027712782270E
:1037800093271F910F910C94021B08952FE0929F95
:10379000800D1124A82FA695A695A695877051E0B7
:1037A00001C0550F8A95EAF785E0A89FD001112442
:1037B00020E030E070E0F901EA0FFB1FE553FE4F17
:1037C0004081CB01022E02C0969587950A94E2F7BC
:1037D00081709927819584278523842780832F5F93
:1037E0003F4F2530310539F708952FE0929F800D26
:1037F0001124682F669566956695982F977085E0D9
:10380000689FB001112440E050E080E0FA01E60F2B
:10381000F71FE553FE4F208130E0092E02C0369598
:1038200027950A94E2F721703327042E01C0220F56
:103830000A94EAF7822B4F5F5F4F4530510531F70D
:103840000895CF92DF92EF92FF920F931F93CF9341
:10385000DF938C01C0900102D0900202E09003023D
:10386000F09004028091FD019091FE01A091FF0172
:10387000B0910002C82AD92AEA2AFB2ACFE1D0E077
:10388000D701C6010C2E04C0B695A79597958795CC
:103890000A94D2F780FF06C0B8018C2F0E949107CE
:1038A000019721F4219760F780E001C08C2FDF9110
:1038B000CF911F910F91FF90EF90DF90CF900895DF
:1038C000CF93DF93EC010E94211CBE010E9491075F
:1038D000DF91CF9108951F93CF93DF93EB019091E8
:1038E0009201992321F0CB010E94601C13C0882310
:1038F00049F0CB010E94211C182F682FCE010E9495
:10390000C61B04C0CB010E94F51B182FBE01812FDE
:103910000E949107DF91CF911F9108958091050238
:103920008595859585950895809105028770089500
:1039300098E0899F90011124262B209305020C9476
:10394000281B209105028095822380930502982FE1
:10395000977069F430E0482F082E000C550B24179F
:10396000350729F08595859585950C94491B089513
:1039700090910502977081E009F480E00895E0914C
:103980000201F0910301809129028083E0910201FC
:10399000F0910301908180912802892B8083E0912E
:1039A0000201F0910301908180912702892B80838D
:1039B00080910602882381F0E0910201F0910301D9
:1039C0009081892B808380910201909103010E9454
:1039D000801D8111109206028091020190910301D5
:1039E0000C94581180912902089590912902892BF5
:1039F00080932902089580959091290289238093CC
:103A00002902089510922902089590912802892B85
:103A100080932802089580959091280289238093AD
:103A20002802089510922802089590912702892B68
:103A3000809327020895809590912702892380938F
:103A40002702089510922702089580930602089590
:103A50001092060208956DEE7EEF80E090E00E94E5
:103A60005A2E60E082E090E00E943C2E60E083E00D
:103A700090E00E943C2E60E084E090E00E943C2EAA
:103A800060E085E090E00E943C2E60E086E090E0FF
:103A90000E943C2E40E050E0BA0188E090E00C9497
:103AA0004E2E80E090E00E94362E21E08D3E9E4F0B
:103AB00009F020E0822F089582E090E00C94282EF7
:103AC000682F82E090E00C943C2E83E090E00C9410
:103AD000282E682F83E090E00C943C2E84E090E048
:103AE0000C94282E682F84E090E00C943C2E86E005
:103AF00090E00C94282E682F86E090E00C943C2EE9
:103B0000FC0131969C01205E3F4F80E09191911124
:103B10008F5FE217F307D1F708959C01FC013296FD
:103B20009FEF80E04191461789F09F3F19F44111C2
:103B300001C0982F8F5F8E31A9F79F3F39F0F901AF
:103B4000E90FF11D97FDFA95628308950895FC0130
:103B5000329680962081261301C010823196E81794
:103B6000F907C1F70895262F2695269526952F311A
:103B700068F4FC01E20FF11D677021E030E001C044
:103B8000220F6A95EAF78181282B21830895262F39
:103B90002695269526952F3170F4FC01E20FF11D34
:103BA000677021E030E001C0220F6A95EAF72095A6
:103BB000818128232183089520911401222329F053
:103BC0002091960227FD0C94B31D0C948D1D20911D
:103BD0001401222329F02091960227FD0C94C71D81
:103BE0000C94A71DFC01319680961192E817F907F5
:103BF000E1F7089580919D02843051F110922B02DB
:103C000020E488E190E00FB6F894A89580936000D6
:103C10000FBE2093600080E00E94040780E00E94B5
:103C2000740783B7817F846083BF83B7816083BF5C
:103C30007894889583B78E7F83BF0FB6F894A89544
:103C400080916000886180936000109260000FBED8
:103C5000089508950895CF930E94291E0E94AA0AEC
:103C60000E942A1EC0E08C2F0E945E0B892B29F433
:103C7000CF5FC530C1F780E001C081E0CF910895EA
:103C80000E94F1160E9483220E944C110C9474072A
:103C90001F920F920FB60F9211248F939F93AF93A1
:103CA000BF9380912B02811113C080919202909159
:103CB0009302A0919402B09195024196A11DB11D6D
:103CC0008093920290939302A0939402B0939502F2
:103CD000BF91AF919F918F910F900FBE0F901F904A
:103CE000189582E084BD93E095BD9AEF97BD8093CF
:103CF0006E0008952FB7F8948091920290919302EC
:103D0000A0919402B09195022FBF0895CF92DF92B7
:103D1000EF92FF920F931F932FB7F8944091920266
:103D20005091930260919402709195022FBF6A01A5
:103D30007B01EE24FF248C0120E030E0C016D10688
:103D4000E206F30610F4415051099A01281B390B81
:103D5000C9011F910F91FF90EF90DF90CF900895D0
:103D600078941F920F920FB60F9211248F939F9306
:103D7000AF93BF938091920290919302A09194028D
:103D8000B09195020196A11DB11D8093920290936E
:103D90009302A0939402B0939502BF91AF919F912B
:103DA0008F910F900FBE0F901F90189581E0809318
:103DB000E00080E28093D8001092C9008FE19EE479
:103DC0000197F1F700C0000087E090EBDC018093E1
:103DD000A6029093A702A093A802B093A9029CE028
:103DE00088E10FB6F894A895809360000FBE909379
:103DF0006000FFCFAF92BF92CF92DF92EF92FF921F
:103E00000F931F93CF93C0E0CC24C394D12CE82E02
:103E1000F12C8C2F0E945E0B5C0100E010E09601FB
:103E2000002E02C0220F331F0A94E2F72A213B2101
:103E3000232B31F40F5F1F4F0F30110581F70AC09C
:103E4000602F7C2F80E00E947707E816F90691F733
:103E500081E004C0CF5FC530E1F680E0CF911F91D3
:103E60000F91FF90EF90DF90CF90BF90AF900895AB
:103E7000CF93C82F8CE20E94FA1E882321F08C2F4A
:103E8000CF910C94FA1E80E0CF910895CF930E94B9
:103E9000511D811102C00E942B1DC5E6C15049F081
:103EA0000E94AA0A8FE39CE90197F1F700C0000085
:103EB000F5CF89E20E94381F81110FC18AE20E946A
:103EC000381F81110E942B1D85E00E94381F81112F
:103ED0000E94D61E0E945C1D80932A0287E00E94E9
:103EE000381F8823A9F18BE10E94381F882351F0E5
:103EF00080912A0281FB222720F991E0922790FBF2
:103F000081F90EC08EE00E94381F882361F08091F5
:103F10002A0282FB222720F991E0922790FB82F966
:103F200080932A0215C080E10E94381F90912A02D6
:103F3000882341F093FB222720F981E0822780FB30
:103F400093F904C0892F809580FB90F990932A0201
:103F500080912A020E94601D0E946E1D90E0909345
:103F600097028093960280EE0E94381F882341F0CA
:103F700080919602982F909590FB80F980939602FD
:103F800089E30E94381F882359F08091960281FBB3
:103F9000222720F991E0922790FB81F980939602E5
:103FA00082EE0E94381F882359F08091960282FB8E
:103FB000222720F991E0922790FB82F980939602C4
:103FC00086EE0E94381F882359F08091960283FB69
:103FD000222720F991E0922790FB83F980939602A3
:103FE00083EE0E94381F882359F08091960284FB4B
:103FF000222720F991E0922790FB84F98093960282
:1040000085E30E94381F882359F08091960285FB32
:10401000222720F991E0922790FB85F98093960260
:1040200081E30E94381F882359F08091960286FB15
:10403000222720F991E0922790FB86F9809396023F
:1040400081E10E94381F882359F08091960287FBF6
:10405000222720F991E0922790FB87F9809396021E
:10406000809196020E94721D87E20E94381FC82F1D
:104070008EE10E94381F8111C2608FE10E94381FBB
:104080008111C46080E20E94381F8111C86081E202
:104090000E94381F8111C06182E20E94381F811185
:1040A000C06283E20E94381F8111C06484E20E94D2
:1040B000381F882311F0C06802C0CC2329F08C2F50
:1040C0000E94691D6C2F03C00E94651D682F70E05F
:1040D00080E090E0CF910C94C71ACF910895809121
:1040E0002E0280FF0BC06091070185E0689FB00140
:1040F000112475956795759567952BC081FF09C04B
:104100006091070185E0689FB0011124759567955E
:1041100020C082FF07C06091070185E0689FB00161
:10412000112417C090912F029923D1F060910601BC
:10413000961788F72091070185E0289F90011124A8
:10414000929FA001939F500D112470E0CA010E941C
:10415000D22D6038710540F46115710539F002C047
:1041600065E070E0862F08958FE7089581E0089557
:1041700080912E0280FF08C06091050170E0759566
:1041800067957595679521C081FF06C0609105010F
:1041900070E07595679519C082FF04C060910501B4
:1041A00070E010C090912F029923C1F0609104013A
:1041B0009617A0F780910501899FC001112470E036
:1041C0000E94D22D6038710528F46115710521F027
:1041D000862F08958FE7089581E0089561E070E0EB
:1041E000F4CF803F21F40E946F20819504C0813F6D
:1041F00029F40E946F20809332020895823F21F4B7
:104200000E946F20819504C0833F29F40E946F2093
:10421000809331020895893F19F40E94B82005C0A7
:104220008A3F31F40E94B82081958093330208952B
:104230008B3F21F40E94B820819504C08C3F29F463
:104240000E94B820809334020895843F21F4809125
:104250003002816017C0853F21F480913002826076
:1042600011C0863F21F48091300284600BC0873FEB
:1042700021F480913002886005C0883F31F480913C
:10428000300280618093300208958D3F21F4809147
:104290002E0281600BC08E3F21F480912E0282603D
:1042A00005C08F3F29F480912E02846080932E02F6
:1042B0000895803F39F48091320287FF6CC01092DC
:1042C000320269C0813F29F4809132021816BCF392
:1042D00062C090913102823F29F497FF5CC0109236
:1042E000310259C0833F19F41916CCF354C0893FE9
:1042F00041F48091330218160CF04DC01092330235
:104300004AC08A3F29F48091330287FF44C0F6CF28
:104310008B3F39F48091340287FF3DC01092340204
:104320003AC08C3F29F4809134021816BCF333C094
:10433000843F21F4809130028E7F17C0853F21F4A5
:10434000809130028D7F11C0863F21F48091300230
:104350008B7F0BC0873F21F480913002877F05C09F
:10436000883F31F4809130028F7E8093300213C0F9
:104370008D3F21F480912E028E7F0BC08E3F21F461
:1043800080912E028D7F05C08F3F29F480912E02EF
:104390008B7F80932E028091310281110EC080911B
:1043A000320281110AC080913302811106C08091CE
:1043B0003402811102C010922F02089580E392E02E
:1043C0000E9463110E947A1E90932D0280932C020A
:1043D00008951F93CF93DF9380912C0290912D022B
:1043E0000E94861EAC0190912F02992321F020910A
:1043F000080130E006C0209109018AE0289F900161
:1044000011244217530708F46EC080913102C09105
:104410003202D091330210913402811107C0C111D0
:104420005EC0D1115CC011115AC05DC09F3F19F030
:104430009F5F90932F02181624F40E946F208093A0
:1044400031028091310287FF05C00E946F20819563
:10445000809331021C1624F40E946F208093320254
:104460008091320287FF05C00E946F208195809362
:10447000320240913102442379F0309132023323E9
:1044800059F025EB4203A00111245093310232036D
:10449000C0011124909332021D1624F40E94B8200A
:1044A000809333028091330287FF05C00E94B820B9
:1044B000819580933302111624F40E94B8208093D2
:1044C00034028091340287FF05C00E94B820819594
:1044D00080933402DF91CF911F910C94DE219F3F96
:1044E00009F0A6CFAECFDF91CF911F910895E0E301
:1044F000F2E085E0DF011D928A95E9F710922F0224
:1045000010922E0208950E94511D811102C00E9436
:104510002B1D0E94771D80939802282F269530E04E
:104520002630310524F081708A6080939802809152
:10453000980280FF02C0869501C080E00C940407B9
:1045400020919802822F8695482F50E045305105E2
:1045500044F48F5F982F990F822F8170892B80935D
:104560009802809198028160809398020E947B1D3E
:104570008091980286950C94040780919802982F58
:10458000969591F09158990F8170892B809398029C
:104590008E7F91E009F490E08091980290FB80F981
:1045A000809398020E947B1D8091980286950C94BE
:1045B000040780919802982F909590FB80F9809342
:1045C0009802813019F483E08093980280919802D8
:1045D0000E947B1D8091980280FF02C0869501C0D9
:1045E00080E00C94040790919802892F86958F5F44
:1045F0008F779170863028F4880F892B80939802EA
:1046000002C090939802809198028E7F91E009F405
:1046100090E08091980290FB80F9809398020E942C
:104620007B1D8091980286950C940407863008F0D3
:1046300085E0880F909198029170892B8093980261
:104640008E7F91E009F490E08091980290FB80F9D0
:10465000809398020E947B1D8091980286950C940D
:1046600004078091550208950F931F93CF93DF9312
:1046700000D01F92CDB7DEB78C010E94AC258230EE
:1046800011F0843019F593E099831B830A8390938A
:10469000E9008FEF9091E800815095FD06C095EDFF
:1046A0009A95F1F700008111F5CF8091E80085FF20
:1046B0000DC040E050E063E070E0CE0101960E9442
:1046C000C9258091E8008E778093E8000F900F90C5
:1046D0000F90DF91CF911F910F910895CF93DF93AA
:1046E00000D01F92CDB7DEB720919D02243031F566
:1046F00022E02983805891099B838A8383E08093F9
:10470000E9008FEF9091E800815095FD06C095ED8E
:104710009A95F1F700008111F5CF8091E80085FFAF
:104720000DC040E050E063E070E0CE0101960E94D1
:10473000C9258091E8008E778093E8000F900F9054
:104740000F90DF91CF910895CF93DF93EC010E94FA
:10475000AC25823011F08430F9F482E08093E900D6
:104760009FEF8091E800915085FD06C085ED8A9508
:10477000F1F700009111F5CF8091E80085FF0CC0A2
:1047800040E050E065E070E0CE010E94C9258091D4
:10479000E8008E778093E800DF91CF910895CF9362
:1047A000DF93EC010E94AC25823019F0843009F0CF
:1047B00047C0809114018823E1F08091960287FF21
:1047C00018C084E08093E9008FEF9091E800815059
:1047D00095FD06C095E19A95F1F700008111F5CF9E
:1047E0008091E80085FF2CC040E050E060E270E07E
:1047F00017C081E08093E9008FEF9091E80081502D
:1048000095FD06C095ED9A95F1F700008111F5CF61
:104810008091E80085FF14C040E050E068E070E05F
:10482000CE010E94C9258091E8008E778093E80030
:1048300080E2FE01A5E3B2E001900D928A95E1F7D6
:10484000DF91CF91089580919C02811109C00E944F
:104850005E270E94BB278091E20084608093E20083
:10486000089510929C020895089508950C94401E96
:1048700042E061EC81E00E94D82642E061EC82E0F7
:104880000E94D82642E061EC83E00E94D82642E2F2
:1048900061EC84E00C94D82680919F02833009F467
:1048A00055C030F4813071F0823009F48EC0089523
:1048B0008A3009F47AC08B3009F460C0893009F07D
:1048C0009CC020C080919E02813A09F096C08091E0
:1048D000E800877F8093E8008091A2029091A30274
:1048E000892B21F460E285E392E003C060E080E080
:1048F00090E070E00E9414268091E8008B7780930E
:10490000E800089580919E02813209F076C080917E
:10491000A2029091A302009719F0039709F06DC0CD
:104920008091E800877F8093E8008091E80082FD15
:1049300005C080919D028111F8CF5FC08091F10088
:10494000809355028091E8008B7753C080919E023E
:10495000813A09F052C08091A2029091A302892B62
:1049600009F04BC08091E800877F8093E800809138
:10497000E80080FFFCCF8091140136C080919E0238
:104980008132D9F58091A2029091A302892BA9F5D9
:104990008091E800877F8093E8000E940D27809136
:1049A000A002809314010C94F11680919E02813232
:1049B00021F58091E800877F8093E8000E940D2711
:1049C0008091A10280935602089580919E02813ABF
:1049D000A1F48091E800877F8093E8008091E8004F
:1049E00080FFFCCF809156028093F1008091E80017
:1049F0008E778093E8000C940D27089584B7877F05
:104A000084BF0FB6F894A895809160008861809368
:104A10006000109260000FBE80E8809361001092E9
:104A200061000E949B110E945E270E94BB2780911B
:104A3000E20084608093E20078940E944A2A0E94F7
:104A40009F118AE091E00E94471180919D0285307C
:104A500069F40E94FA1D80919B028823B1F30E94A1
:104A60002B1E882391F30E94B325EFCF0E94A9113A
:104A70000E94DB10EACF0C943D25292F33272330E9
:104A80003105C9F064F42130310581F0223031055F
:104A900009F049C08DE690E021EA35E048C02132B6
:104AA000310521F12232310571F13DC082E190E002
:104AB0002EE036E03CC099278130910571F02CF44E
:104AC000892B89F5EDE9F5E00DC08230910541F0C3
:104AD000039749F5EDE7F5E005C0EFE8F5E002C022
:104AE000E3E8F5E0849190E09F0121C06430710516
:104AF000D0F4660F771FFB01EB5CFE4F2081318104
:104B000089E090E014C06430710568F4FB01EE0F99
:104B1000FF1FE35DFE4F20813181FB01E75DFE4F0A
:104B2000808190E004C080E090E020E030E0FA0175
:104B30003183208308950895CF93C82F0E949B2529
:104B4000C0935702CF91089580919D02843011F057
:104B500081E0089582E0089580915702811102C09A
:104B60000C94A425089580E189BD82E189BD09B432
:104B700000FEFDCF8091D8008F7D8093D80080917A
:104B8000E00082608093E0008091E00081FDFCCF36
:104B90000895CF92DF92EF92FF920F931F93CF93DE
:104BA000DF93EC018B016A010E942C27811133C035
:104BB000C114D10439F0F60180819181081B190BD1
:104BC000C80FD91FE12CF12C0115110519F18091A5
:104BD000E80085FD16C08091E8008E778093E8009C
:104BE000C114D10449F0F60180819181E80EF91ECB
:104BF000F182E08285E00FC00E942C27882321F3F8
:104C00000AC089918093F10001501109FFEFEF1A5A
:104C1000FF0ADACF80E0DF91CF911F910F91FF90D3
:104C2000EF90DF90CF9008952091A4023091A502DB
:104C30002617370748F06115710539F42091E8000F
:104C40002E772093E80001C0B90140E0611571059D
:104C5000A9F120919D02222309F443C0253009F4D3
:104C600042C02091E80023FD40C02091E80022FDD1
:104C700032C02091E80020FFE9CF4091F30020915D
:104C8000F20030E0342BFC01CF016115710559F0C1
:104C90002830310540F481918093F1006150710911
:104CA0002F5F3F4FF1CF41E02830310509F040E060
:104CB0002091E8002E772093E800C8CF4111C9CF9A
:104CC0000AC080919D02882361F0853061F0809157
:104CD000E80083FD0AC08091E80082FFF2CF80E007
:104CE000089582E0089583E0089581E00895209179
:104CF000A4023091A5022617370748F06115710507
:104D000039F42091E8002E772093E80001C0B90122
:104D1000FC0120E06115710591F180919D028823CD
:104D200009F440C0853009F43FC08091E80083FD5C
:104D30003DC08091E80082FD2FC08091E80080FF97
:104D4000E9CF2091F3008091F20090E0922B611561
:104D5000710559F08830910540F424912093F100B9
:104D60003196615071090196F2CF21E0089709F060
:104D700020E08091E8008E778093E800CBCF21116E
:104D8000CCCF0AC080919D02882361F0853061F00C
:104D90008091E80083FD0AC08091E80082FFF2CF95
:104DA00080E0089582E0089583E0089581E0089509
:104DB000982F973058F59093E900981739F0709133
:104DC000EC002091ED005091F00003C0242F762FCD
:104DD00050E021FF19C03091EB003E7F3093EB0093
:104DE0003091ED003D7F3093ED003091EB0031606C
:104DF0003093EB007093EC002093ED005093F000A3
:104E00002091EE0027FF07C09F5FD3CF8F70809364
:104E1000E90081E0089580E0089580919E0287FF77
:104E200011C08091E80082FD05C080919D02811132
:104E3000F8CF11C08091E8008B770BC080919D0264
:104E4000882349F08091E80080FFF8CF8091E80046
:104E50008E778093E80008952091E4003091E5007A
:104E600095E64091EC00842F817040FF22C0809134
:104E7000E80080FD1CC080919D02882391F0853060
:104E800091F08091EB0085FD10C04091E4005091BD
:104E9000E5004217530729F39A01915011F784E076
:104EA000089582E0089583E0089581E0089580E008
:104EB00008954091E80042FFDECF08950E94CC277C
:104EC0000E94D427E0EEF0E0808181608083E8EDED
:104ED000F0E080818F77808319BCA7EDB0E08C91E2
:104EE0008E7F8C9380818F7E808310929C020895A8
:104EF0000F931F93CF93DF930E94CC270E94D42758
:104F0000C8EDD0E088818F77888388818068888326
:104F100088818F7D888319BC10929D02109299021E
:104F200010929B0210929A0200EE10E0F80180812C
:104F30008B7F808388818160888342E060E080E0AD
:104F40000E94D826E1EEF0E080818E7F8083E2EE41
:104F5000F0E0808181608083808188608083F801B7
:104F600080818E7F8083888180618883DF91CF916B
:104F70001F910F910895E8EDF0E080818F7E80838E
:104F8000E7EDF0E080818160808384E082BF81E092
:104F900080939C020C947827E8EDF0E080818E7F6E
:104FA00080831092E20008951092DA001092E100DE
:104FB00008951F920F920FB60F9211242F933F93D3
:104FC0004F935F936F937F938F939F93AF93BF9311
:104FD000EF93FF938091E10082FF0BC08091E2008C
:104FE00082FF07C08091E1008B7F8093E1000E94E7
:104FF000492A8091DA0080FF1FC08091D80080FF8D
:105000001BC08091DA008E7F8093DA008091D900F6
:1050100080FF0DC080E189BD82E189BD09B400FE39
:10502000FDCF81E080939D020E94232405C019BC1E
:1050300010929D020E9431248091E10080FF19C0EE
:105040008091E20080FF15C08091E2008E7F809306
:10505000E2008091E20080618093E2008091D800BC
:1050600080628093D80019BC85E080939D020E94E5
:1050700035248091E10084FF30C08091E20084FFFC
:105080002CC080E189BD82E189BD09B400FEFDCF5D
:105090008091D8008F7D8093D8008091E1008F7E31
:1050A0008093E1008091E2008F7E8093E200809106
:1050B000E20081608093E20080919902882311F0E0
:1050C00084E007C08091E30087FD02C081E001C059
:1050D00083E080939D020E9436248091E10083FF4B
:1050E00029C08091E20083FF25C08091E100877F85
:1050F0008093E10082E080939D021092990280915A
:10510000E1008E7F8093E1008091E2008E7F8093AA
:10511000E2008091E20080618093E20042E060E082
:1051200080E00E94D8268091F00088608093F00093
:105130000E943424FF91EF91BF91AF919F918F9185
:105140007F916F915F914F913F912F910F900FBE83
:105150000F901F9018951F920F920FB60F92112467
:105160002F933F934F935F936F937F938F939F936F
:10517000AF93BF93CF93DF93EF93FF93C091E90079
:10518000CF708091EC00D82FD17080FDD0E81092C4
:10519000E9008091F000877F8093F00078940E946E
:1051A000EF281092E9008091F00088608093F00071
:1051B000CD2BCF70C093E900FF91EF91DF91CF919C
:1051C000BF91AF919F918F917F916F915F914F911F
:1051D0003F912F910F900FBE0F901F9018951F9326
:1051E000CF93DF93CDB7DEB7AA970FB6F894DEBFA3
:1051F0000FBECDBFEEE9F2E088E08E0F9091F10096
:1052000091938E13FBCF0E944C248091E80083FF82
:1052100028C180919E0290919F02492F50E04A3010
:10522000510508F01EC1FA01E556FF4F0C94082EF7
:10523000803821F0823809F014C108C080919A02A8
:1052400090919B02992389F082600FC08091A20205
:105250008F70873008F005C18093E9008091EB00E2
:1052600085FB882780F91092E9009091E800977FEC
:105270009093E8008093F1001092F100D0C0282FA5
:105280002D7F09F0EEC0882319F0823061F0E9C06B
:105290008091A002813009F0E4C0933009F080E0F1
:1052A00080939B022EC08091A00281112AC0809120
:1052B000A2028F702FEF280F263008F0D2C0809303
:1052C000E9002091EB0020FF1CC0933021F4809175
:1052D000EB00806214C09091EB0090619093EB0022
:1052E00021E030E0A90102C0440F551F8A95E2F782
:1052F0004093EA001092EA008091EB00886080936E
:10530000EB001092E9008091E800877F8093E8002D
:105310000E940D27A6C08111A4C01091A0021F7782
:105320008091E3008078812B8093E3008091E800F6
:10533000877F8093E8000E940D278091E80080FF1E
:10534000FCCF8091E30080688093E300111102C0DC
:1053500082E001C083E080939D0283C08058823048
:1053600008F07FC08091A0029091A1028C3D53E093
:10537000950779F583E08A838AE289834FB7F894A9
:10538000DE01139620E03EE051E2E32FF0E050937F
:105390005700E49120FF03C0E295EF703F5FEF708C
:1053A0008E2F90E0EA3010F0C79601C0C0968D9322
:1053B0009D932F5F243149F74FBF8091E800877F8D
:1053C0008093E8006AE270E0CE0101960E94142604
:1053D00015C06091A2027091A302AE014F5F5F4FB2
:1053E0000E943B25BC01892BE1F19091E800977F59
:1053F0009093E80089819A810E9477268091E80045
:105400008B778093E8002DC0803859F58091E800B3
:10541000877F8093E800809199028093F1008091CA
:10542000E8008E7773CF81111CC09091A00292305A
:10543000C0F48091E800877F8093E8009093990200
:105440000E940D2780919902811106C08091E3008E
:1054500087FD02C081E001C084E080939D020E942C
:1054600038248091E80083FF0AC08091E800877F9C
:105470008093E8008091EB0080628093EB00AA9615
:105480000FB6F894DEBF0FBECDBFDF91CF911F9155
:1054900008950895CF9380919D028823A1F0C09133
:1054A000E900CF709091EC00892F817090FD80E829
:1054B000C82B1092E9008091E80083FD0E94EF283C
:1054C000CF70C093E900CF9108955058BB27AA2709
:1054D0000E947D2A0C94282C0E941A2C38F00E94DD
:1054E000212C20F039F49F3F19F426F40C94F02B72
:1054F0000EF4E095E7FB0C94EA2BE92F0E94392C7F
:1055000058F3BA17620773078407950720F079F4F8
:10551000A6F50C945B2C0EF4E0950B2EBA2FA02D63
:105520000B01B90190010C01CA01A0011124FF2750
:10553000591B99F0593F50F4503E68F11A16F0404B
:10554000A22F232F342F4427585FF3CF469537954A
:105550002795A795F0405395C9F77EF41F16BA0B0F
:10556000620B730B840BBAF09150A1F0FF0FBB1FBD
:10557000661F771F881FC2F70EC0BA0F621F731F06
:10558000841F48F4879577956795B795F7959E3F63
:1055900008F0B0CF9395880F08F09927EE0F9795F4
:1055A000879508950E94E62A0C94282C0E94212CAD
:1055B00058F00E941A2C40F029F45F3F29F00C9417
:1055C000EA2B51110C945C2C0C94F02B0E94392C7A
:1055D00068F39923B1F3552391F3951B550BBB2722
:1055E000AA2762177307840738F09F5F5F4F220F67
:1055F000331F441FAA1FA9F335D00E2E3AF0E0E85E
:1056000032D091505040E695001CCAF72BD0FE2FA7
:1056100029D0660F771F881FBB1F2617370748073B
:10562000AB07B0E809F0BB0B802DBF01FF279358F3
:105630005F4F3AF09E3F510578F00C94EA2B0C94A2
:105640005C2C5F3FE4F3983ED4F38695779567959D
:10565000B795F7959F5FC9F7880F911D9695879528
:1056600097F90895E1E0660F771F881FBB1F621747
:1056700073078407BA0720F0621B730B840BBA0B05
:10568000EE1F88F7E095089529F416F00C94EA2BA4
:105690000C945B2C0C94F02B0E94412CA8F39638B0
:1056A000A0F707F80F92E8942BE33AEA48EB5FE79C
:1056B0000E94EE2C0F920F920F924DB75EB70F9291
:1056C0000E94A42CEAE4F1E00E94F32B4F915F9139
:1056D000EF91FF91E595EE1FFF1F49F0FE57E0683F
:1056E0004427EE0F441FFA95E1F74195550B0E94B0
:1056F0006E2C0F9007FE0C94622C08950E94412C92
:1057000088F09F5798F0B92F9927B751B0F0E1F082
:10571000660F771F881F991F1AF0BA95C9F714C032
:10572000B13091F00E945B2CB1E008950C945B2C99
:10573000672F782F8827B85F39F0B93FCCF386956B
:1057400077956795B395D9F73EF4909580957095C8
:1057500061957F4F8F4F9F4F0895E89409C097FB45
:105760003EF490958095709561957F4F8F4F9F4F38
:105770009923A9F0F92F96E9BB279395F69587957C
:1057800077956795B795F111F8CFFAF4BB0F11F43F
:1057900060FF1BC06F5F7F4F8F4F9F4F16C08823E6
:1057A00011F096E911C0772321F09EE8872F762F1C
:1057B00005C0662371F096E8862F70E060E02AF05D
:1057C0009A95660F771F881FDAF7880F9695879549
:1057D00097F9089597F99F6780E870E060E0089571
:1057E0009FEF80EC0895DF93CF931F930F93FF9269
:1057F000EF92DF927B018C01689406C0DA2EEF01F4
:105800000E94EB2CFE01E894A591259135914591DC
:105810005591A6F3EF010E947D2AFE019701A80190
:10582000DA9469F7DF90EF90FF900F911F91CF917D
:10583000DF91089500240A94161617061806090623
:10584000089500240A9412161306140605060895F6
:10585000092E0394000C11F4882352F0BB0F40F47E
:10586000BF2B11F460FF04C06F5F7F4F8F4F9F4FBE
:10587000089557FD9058440F551F59F05F3F71F040
:105880004795880F97FB991F61F09F3F79F08795A7
:105890000895121613061406551FF2CF4695F1DF30
:1058A00008C0161617061806991FF1CF86957105C0
:1058B000610508940895E894BB2766277727CB01F4
:1058C00097F908959B01AC0160E070E080E89FE3E8
:1058D0000C94D22A0C94EA2B0C944D2D0E94412C4E
:1058E000D8F39923C9F3940F511DA3F3915050405D
:1058F00094F059F0882332F0660F771F881F91507B
:105900005040C1F79E3F51052CF7880F911D969589
:10591000879597F908955F3FACF0983E9CF0BB27C0
:10592000869577956795B79508F4B1609395C1F71B
:10593000BB0F58F711F460FFE8CF6F5F7F4F8F4FB9
:105940009F4FE3CF0C945C2CFA01DC01AA0FBB1F24
:105950009B01AC01BF5728F42227332744275078F6
:1059600020C0B75190F4AB2F00244695379527956A
:10597000011CA395D2F3002071F0220F331F441FA6
:10598000B395DAF30ED00C94652A61307105A0E866
:105990008A07B94630F49B01AC0166277727882730
:1059A0009078309621F02083318342835383089589
:1059B0000E94EB2C0C94282C0E941A2C38F00E9488
:1059C000212C20F0952311F00C94EA2B0C94F02B51
:1059D00011240C945C2C0E94392C70F3959FC1F318
:1059E000950F50E0551F629FF001729FBB27F00D8D
:1059F000B11D639FAA27F00DB11DAA1F649F6627E2
:105A0000B00DA11D661F829F2227B00DA11D621F30
:105A1000739FB00DA11D621F839FA00D611D221FEA
:105A2000749F3327A00D611D231F849F600D211DCE
:105A3000822F762F6A2F11249F5750409AF0F1F051
:105A400088234AF0EE0FFF1FBB1F661F771F881FBA
:105A500091505040A9F79E3F510580F00C94EA2BDD
:105A60000C945C2C5F3FE4F3983ED4F386957795D5
:105A70006795B795F795E7959F5FC1F7FE2B880F60
:105A8000911D9695879597F908959F930E945D2D96
:105A90000F9007FCEE5F0C94862D9F3F31F09150E4
:105AA00020F4879577956795B795880F911D969502
:105AB000879597F908950C94F02B0E94412CD8F308
:105AC000E894E0E0BB279F57F0F02AED3FE049EC77
:105AD00006C0EE0FBB0F661F771F881F28F0B23A73
