:100000000C94D9030C9420040C9420040C94200428
:100010000C9420040C9420040C9420040C942004D0
:100020000C9420040C9420040C9402280C94D428E2
:100030000C94CD1F0C9420040C9420040C942004E8
:100040000C9420040C9420040C9420040C942004A0
:100050000C9420040C9435200C9420040C9420045F
:100060000C9420040C9420040C9420040C94200480
:100070000C9420040C9420040C9420040C94200470
:100080000C9420040C9420040C9420040C94200460
:100090000C9420040C9420040C9420040C94200450
:1000A0000C9420040C9420040C9420043106330694
:1000B0003E063506370639063B063D064006420633
:1000C00044064F06460648064A064C064E065106AA
:1000D000CD15CD150716071646166616FF17FF171E
:1000E000A816FF1758175817CC17D417FF17F9176A
:1000F0006517651765176517651765176517651720
:10010000651765176517651765176517651765170F
:10011000771785178C1793179D1792189218A418A4
:10012000A4189B18A418A418A41892189218A01820
:10013000A418A418A018412968295A2A68295A2AFB
:10014000B429D7295A2A2D2A3C2A07634236B79B5D
:10015000D8A71A39685618AEBAAB558C1D3CB7CC27
:100160005763BD6DEDFD753EF6177231BF0000009F
:10017000803F05A84CCDB2D44EB93836A9020C50F8
:10018000B9918688083CA6AAAA2ABE000000803F32
:100190006D3236726B5254736A464A37766A434EF2
:1001A0000029001E001F002000210022002300243F
:1001B000002500260027002D002E0000002A002B1D
:1001C00000000014001A000800150017001C001899
:1001D000000C00120013002F0030003200394100E3
:1001E0000004001600070009000A000B000D000EB5
:1001F000000F003300340028000000E10064001DFF
:10020000001B000600190005001100100036003721
:100210000038000000E5000000E000E3000000E21C
:10022000002C0000000151000003510000E600E72F
:100230000000000251E40035003A003B003C003D64
:10024000003E003F004000410042004300440045A2
:100250000000004C0001000000005C52000100F4AE
:1002600000F000F50001005200010046000100010D
:1002700000010001000000500051004F00F200F1A9
:1002800000F300500051004F000100010001000088
:1002900000010000300300040001000100AA00A9D1
:1002A00000A800AC00AB00AE00000001000000019F
:1002B000000100000001004E000000010000004BA2
:1002C00000000001000100000001000100BA5CC351
:1002D0005CC45CC55CC65CC75C0100010001000138
:1002E0000001000100010000000100BB5C0000BD36
:1002F0005CBF5CC15C010001000100010001000164
:1003000000010001000100010001000000BE5CC00E
:100310005CC25C010001000100010001000100015C
:1003200000010001000000010001000100010001C6
:1003300000010001000100010001000100010000B6
:1003400000010000000100010000000100010000A8
:100350000001000000010000000100010000000198
:100360000001000100010001000100010001000185
:100370000001000100010001000100010000000176
:100380000001000000010001000100010001000166
:100390000001000100010001000100010001000155
:1003A0000000000100010001000100010001000146
:1003B0000001000100010001000100000001000136
:1003C0000000000100010001000100010001000126
:1003D0000001000100000001000000010001000018
:1003E0000001000100000001000000010000000108
:1003F00000010000000100010000000000000000FA
:10040000002A2B280000000000000000000000006F
:100410000000000029000000002C1E3420212224AE
:10042000342627252E362D3738271E1F202122233C
:100430002425263333362E37381F040506070809CE
:100440000A0B0C0D0E0F1011121314151617181994
:100450001A1B1C1D2F3130232D35040506070809F2
:100460000A0B0C0D0E0F1011121314151617181974
:100470001A1B1C1D2F3130354C00000000000000FD
:10048000000000000000000000000000000000006C
:100490000000000000000000000001010101010156
:1004A0000001010101000000000000000000000048
:1004B0000000000100010001010101010101010131
:1004C000010101010101010101010101010101011C
:1004D0000101010100000001010000000000000016
:1004E000000000000000000000000000000000000C
:1004F0000000000001010101006801F000B4007873
:10050000005A007F3F1F643214643214783C1E1E70
:10051000140A0500000000000101010101010101B0
:1005200001020202020202020202030303030303A6
:100530000303040404040404050505050506060672
:10054000060607070707080808080909090A0A0A2A
:100550000A0B0B0B0C0C0C0D0D0D0E0E0F0F0F10CC
:100560001011111112121313141415151616171752
:10057000181819191A1A1B1C1C1D1D1E1F1F2020BC
:100580002122222324252526272728292A2B2B2C04
:100590002D2E2F2F30313233343536363738393A25
:1005A0003B3C3D3E3F4041424344464748494A4B1D
:1005B0004C4D4F50515253555657585A5B5C5E5FE5
:1005C000606263646667696A6C6D6E70717374767D
:1005D00078797B7C7E8081838486888A8B8D8F91DD
:1005E000929496989A9B9D9FA1A3A5A7A9ABADAF06
:1005F000B1B3B5B7B9BBBDBFC1C4C6C8CACCCFD1F2
:10060000D3D6D8DADCDFE1E4E6E8EBEDF0F2F5F79B
:10061000FAFCFF0403300000000A0344005A0036CD
:1006200000300000000C036C0069006E002D0065B6
:100630000000000403090409026D00040100A0FA8F
:100640000904000001030101000921110100012238
:1006500040000705810308000A09040100010301A5
:100660000200092111010001224D00070582030843
:10067000000A090402000103000000092111010021
:10068000012236000705830308000A09040300015C
:10069000030000000921110100012239000705842F
:1006A000032000011201100100000008EDFE60604F
:1006B00001000102030105010906A101050719E076
:1006C00029E7150025019508750181020508190122
:1006D000290595057501910295017503910105079D
:1006E000190029F71500250195F875018102C0054B
:1006F000010980A10185021601002603001A81006C
:100700002A8300751095018100C0050C0901A10123
:100710008503160100269C021A01002A9C0275100E
:1007200095018100C005010902A1010901A100058F
:100730000919012905150025019505750181029505
:1007400001750381010501093009311581257F9566
:10075000027508810609381581257F950175088184
:1007600006050C0A38021581257F9501750881065A
:10077000C0C005010906A101050719E029E7150018
:10078000250195087501810295017508810105080B
:1007900019012905950575019102950175039101CE
:1007A0000507190029FF150026FF00950675088129
:1007B00000C011241FBECFEFDAE0DEBFCDBF04B60C
:1007C00003FE27C08091AD059091AE05A091AF05C5
:1007D000B091B0058730904BA740B04BD1F4109248
:1007E000AD051092AE051092AF051092B00514BE83
:1007F00084B7877F84BF0FB6F894A8958091600076
:10080000886180936000109260000FBEE0E0F8E322
:10081000099511E0A0E0B1E0E6E3FDE502C0059036
:100820000D92A234B107D9F725E0A2E4B1E001C0EE
:100830001D92AD3AB207E1F70E9427250C94992E3C
:100840000C9400000C947905229A2A9A08950E942B
:1008500078050C9424040C9482050E9402232FEF47
:1008600081EE94E0215080409040E1F700C000000C
:100870000C9402230F931F93CF93DF93EC018B0112
:100880000E942D040E9480180E949D1C19830883D9
:10089000DF91CF911F910F910895AF92BF92CF92A8
:1008A000DF92EF92FF920F931F93CF93DF93EC01B0
:1008B0005B01042FC0900405D0900505E09006056B
:1008C000F09007050E9480180E949D1C86E0080297
:1008D00080011124CA15DB0531F0CE010E944118B8
:1008E000C00FD11FF7CF0E948018C0920405D0928C
:1008F0000505E0920605F0920705DF91CF911F9163
:100900000F91FF90EF90DF90CF90BF90AF90089540
:100910000F931F93CF93DF93EB01F8013281A881EE
:10092000B981311103C0A817B907E1F086E02802A8
:1009300090011124CD01821B930B4817590761F0D8
:1009400086E001900D928A95E1F788819981280FC0
:10095000391F3983288306C0DF91CF911F910F91F2
:100960000C942D04DF91CF911F910F910895EF9278
:10097000FF920F931F93CF93DF9300D01F92CDB7B9
:10098000DEB78C01790149836A837B830E942D0441
:10099000498186E04802A00111246A81E62F7B810B
:1009A000F72F2E2F9F2FE017F10729F0E41BF50BEF
:1009B00032813111F6CFF701208391830F900F9090
:1009C0000F90DF91CF911F910F91FF90EF900895BD
:1009D0000F931F93CF938B0120914404211132C0B8
:1009E000FB01C281C11172C081309105B9F070F074
:1009F00083309105E9F0049709F067C06091000128
:100A0000709101014FEF8CE394E019C062E471E052
:100A100082E494E00E943A0481E007C06CE374E051
:100A200082E494E00E943A0482E0809344044EC041
:100A3000609102017091030141E082E491E00E9423
:100A40004D0444C08230910521F018F10597D8F18A
:100A500020C0FB01C281CC23C9F1213061F02230DA
:100A6000A9F4609142047091430420E031E04FEF1B
:100A70008CE394E009C0609142047091430422E049
:100A800031E041E082E491E00E94B7041092440416
:100A90001AC0213061F02230C1F44091020150911E
:100AA00003012FEF62E474E08CE394E009C040910D
:100AB00000015091010121E062E474E082E491E0E0
:100AC0000E94880402C0C0E001C0C1E08C2FCF9119
:100AD0001F910F910895FC018281882331F06111EB
:100AE00004C080E991E00E948E0880E090E00895C3
:100AF00008950895833021E5920711F482E090E093
:100B00000C94E804089581E008950C947A050E94FD
:100B100080182FEF84E39CE0215080409040E1F763
:100B200000C000000C945B20FF920F931F93CF93A3
:100B3000DF938C01FC01C081D181809199048111E6
:100B400013C08281882349F0CE010E94B01DF82E87
:100B5000682FCE010E94551D04C0CE010E94841D45
:100B6000F82EBE018F2D04C0CE010E94B01DBE0123
:100B70000E940609EC01B8010E948505882309F44A
:100B80006DC2B801CE010E949C0B882309F466C295
:100B9000C23CFCE5DF0741F4F8018281882309F4B7
:100BA0005DC20E943F0F5AC2C33C8CE5D80708F0D3
:100BB00015C1CB3B9CE5D90761F4F80182818823FC
:100BC00009F44CC20E94811E8272E1F00E94DE0F85
:100BD00045C2CC3BECE5DE07C0F0CE3B9CE5D90737
:100BE00009F4CDC008F0DFC0CC3BFCE5DF0709F01D
:100BF000CEC0F8018281882309F430C20E94811E90
:100C0000827221F30E94D40F29C2C531FCE5DF07AF
:100C100008F07EC0C2308CE5D80708F452C0F80155
:100C20008281882309F459C00E94E01E811102C00C
:100C30000E94BA1E0E94F31E90E090939E0580933E
:100C40009D05FE01E350FC45E231F10530F4EA5A1E
:100C5000FF4F80919D050C94312E80919D05816000
:100C600027C0826025C0846023C0806121C080626B
:100C70001FC080641DC080681BC08460886018C06D
:100C80008E7F16C08D7F14C08B7F12C08F7E10C0E8
:100C90008F7D0EC08F7B0CC08F770AC08B7F877FC4
:100CA00007C087FB222720F991E0922790FB87F964
:100CB00080939D0580919D050E94F71E0E948018DB
:100CC000CDC1C1159CE5D90781F0C130DC45A9F043
:100CD00081E080934A0480934B04C801DF91CF9157
:100CE0001F910F91FF900C948305F8018281882356
:100CF00009F4B4C10E948705B1C1F801828188233B
:100D000009F4ACC180913105816080933105A6C1A1
:100D1000C531FCE5DF0739F50E94811E282FF80157
:100D200082814091060150910701882379F02A7A47
:100D300091E009F490E090934504911102C069E2BA
:100D400001C065E3CA010E94611F0AC08091450489
:100D5000811102C069E201C065E3CA010E946C1FF3
:100D60000E944E1E7BC1CA3BDC4509F0B1CFF801A1
:100D70008281882309F472C10E941B106FC1F8019F
:100D80008281882309F46AC10E94D00E67C1CD3BDD
:100D9000DC4509F09DCFF8018281882309F45EC10A
:100DA0000E94B80E5BC1F8018281C03CFCE5DF0700
:100DB00031F4882309F452C10E940A0F4FC1C13C8B
:100DC000DC4530F4882309F449C10E94EF0E46C186
:100DD000882309F443C10E94240F40C1C93CECE5BB
:100DE000DE0749F4F8018281882309F437C188E1DC
:100DF0000E94590F33C1CA3CFCE5DF0708F088C0E8
:100E0000C53C8CE5D807B1F4F8018281882309F448
:100E100025C10E94880D663071058105910540F05D
:100E20000E94880D683071058105910508F4EACEAD
:100E300086E0DECFC63C9CE5D90728F5C33CECE54F
:100E4000DE0739F4F8018281882309F407C181E0C3
:100E5000CFCFC43CDC4509F03BCFF8018281882329
:100E600009F4FCC00E94880D62307105810591056E
:100E700040F00E94880D653071058105910508F4E8
:100E8000C1CE82E0B5CFF8018281C73CFCE5DF0727
:100E9000A1F4882309F4E2C00E94880D6F30710527
:100EA0008105910540F00E94880D6431710581052E
:100EB000910508F4A7CE8FE09BCFC83CDC45A0F499
:100EC000882309F4CBC00E94880D69307105810523
:100ED000910540F00E94880D6E30710581059105E5
:100EE00008F490CE89E084CF882309F4B7C00E942B
:100EF000880D653171058105910540F00E94880DCE
:100F0000673171058105910508F47CCE85E170CFCC
:100F1000CC3CECE5DE0739F5F8018281882361F0ED
:100F200010924B040E94FF1F909349048093480441
:100F300080E20E94801592C080914B0481110FC005
:100F400080914804909149040E940B20883C9105AF
:100F500030F487E20E942A1487E20E94211580E281
:100F60000E9487157BC0CD3CFCE5DF0708F041C03F
:100F7000CA3C8CE5D807B1F4F8018281882309F4D2
:100F80006DC00E94880D693171058105910540F0A1
:100F90000E94880D623271058105910508F432CEF8
:100FA00089E126CFCB3CDC4509F092CEF801828165
:100FB000882351F010924A040E94FF1F9093470427
:100FC0008093460482E0B5CF80914A0481110FC01E
:100FD00080914604909147040E940B20883C910523
:100FE00030F486E20E942A1486E20E94211582E0F3
:100FF000B7CFC03DECE5DE0731F4F80182818823EC
:1010000069F180E009C0C13DFCE5DF0741F4F8016A
:101010008281882319F182E00E94C5251FC0CD3C42
:10102000DC4509F055CEF8018281811179CF80919C
:101030004B04811194CF80914804909149040E94FF
:101040000B20883C910508F08ACF80E20E9487152A
:1010500088E20E942A1488E20E94211580E0DF9134
:10106000CF911F910F91FF900895CF93282F30E0DB
:10107000F901E750FC4FC491F901E758FB4F249167
:10108000222359F081EE0E942A148C2F0E942A14E8
:101090008C2F0E94211581EE04C08C2F0E942A14EF
:1010A0008C2FCF910C9421150F931F93CF93DF9327
:1010B000EC01062FFE018491882359F19E012F5FD8
:1010C0003F4F813041F4E901F9011491812F0E94D1
:1010D0002A14812F0DC0823031F4E901F901849185
:1010E0000E942A140AC0833031F4E901F901849185
:1010F0000E94211502C00E9435082196802F882366
:10110000C9F2EFE9FFE03197F1F700C0000081502C
:10111000F6CFDF91CF911F910F91089560E00C946D
:1011200054080C942204CF92DF92EF92FF92863003
:1011300030F4811105C0909180009F7D04C085E04E
:1011400090918000906290938000282F30E0AFEF64
:10115000BFEF0E94372E25E030E040E050E00E94D3
:101160000F2E2C3784E138074105510530F4C901B1
:1011700069E070E00E94E72D29C0DA01C9018A50B8
:10118000974DAF4FBF4F6627782F892F9A2F25EFA6
:1011900038E241E050E00E940F2E69017A01CA0155
:1011A000B9010E94D72D9B01AC01C701B6010E9475
:1011B000D72DBB27A92F982F872F009721E0A207B3
:1011C000B10511F0BC0102C06FEF7FEF70938B008F
:1011D00060938A00FF90EF90DF90CF900895269A59
:1011E0002E9882E28093800089E1809381008FEFC6
:1011F0009FEF90938700809386000C94AC220E940E
:10120000EF080C9427040C942B0408959FE0799F19
:10121000F00111249BE4899FE00DF11D1124E60FDC
:10122000F11DEE0FFF1FEF55FE4F8591949108952C
:10123000880F991FFC01E750FB4F85919491089509
:10124000CF93DF930E9406090E94FB0AEC018115EF
:1012500021E5920708F042C0811530E5930708F0B8
:101260001EC1883E910500F5803E910508F0BFC182
:10127000883A910570F4853A910508F09DC0813057
:10128000910509F4B4C108F46BC1049708F0AFC12B
:1012900067C18D3B910508F49AC0803C910508F424
:1012A0005FC1805C9109EBC0811540E3940780F435
:1012B000811550E2950708F0E1C0803F910508F4E0
:1012C0004FC18F3F910511F008F091C1D0658FC1DA
:1012D000811560E4960708F0DFC0D5C0C11589E527
:1012E000D80740F5C11528E5D20708F025C1C1157A
:1012F00034E5D30778F4C11543E5D40708F001C1FC
:10130000C11552E5D50708F0E6C0DC2FCC27C16F28
:10131000D06A6DC1C11565E5D60708F408C1C115CD
:1013200086E5D80708F01CC1CF71DD27DC2FCC275C
:10133000D0625DC1C53B2CE5D20709F408C1D8F4E1
:10134000C33B4CE5D40709F4FCC008F0FDC0C1154F
:101350006AE5D60708F004C18C2F8F70806E90E08C
:10136000906A24E0D695C7952A95E1F7CF709C0145
:101370003C2BE9013CC1C83B8CE5D80709F4EDC022
:1013800060F4C63B3CE5D30709F4E4C0C73BDC4549
:1013900009F0E6C0C0E0D2ED2AC1CE019056811519
:1013A000904208F0DDC08D2F8F710E94780BDD27F1
:1013B000D0628F71D82B1BC1853A910509F4D3C037
:1013C000863A910509F0D2C0C2E8D0E410C1883A4B
:1013D000910509F4CEC0893A910509F4CDC08A3A45
:1013E000910509F4CCC08B3A910509F4CBC08C3A35
:1013F000910509F4CAC08B3B910509F4C9C08C3B27
:10140000910509F4C8C08D3A910509F4C7C0803B25
:10141000910509F4C6C08E3A910509F4C5C08F3A0A
:10142000910509F4C4C0813B910509F4C3C0823B16
:10143000910509F4C2C0833B910509F4C1C0843B06
:10144000910509F4C0C0853B910509F4BFC0863BF6
:10145000910509F4BEC0873B910509F4BDC0883BE6
:10146000910509F4BCC0893B910509F4BBC08A3BD6
:10147000910509F4BAC0C0E0D4E4B9C09F700E94DD
:101480001809EC01B4C09927D3FF03C0EC01D86C54
:10149000AEC0EC01D06CABC0DF70D06AA8C0282F02
:1014A000237081E090E002C0880F991F2A95E2F72F
:1014B0009C689E0174E0369527957A95E1F7237034
:1014C000922BCF70C695C69560E2C69FE0011124AD
:1014D000C82BD92B8CC02C2F2695269580E2289FCF
:1014E00090011124C370DD2781E090E0AC0102C0BF
:1014F000440F551FCA95E2F7EA01C22BD32BDC68D3
:1015000076C02C2F2695269580E2289F90011124E5
:10151000C370DD2781E090E0AC0102C0440F551F8D
:10152000CA95E2F7EA01C22BD32BDA6860C0DC2F40
:10153000CC27C46FD06A5BC0DC2FCC27C06FD06AC9
:1015400056C0C0E0D4ED53C0C0E0D5ED50C0C0E0FF
:10155000D1ED4DC0C0E0D0ED4AC0C0E0D3ED47C0F2
:10156000C0E0D0E044C0C1E8D0E441C0C3E8D0E46A
:101570003EC0C2EED4E43BC0C9EED4E438C0CAEEEB
:10158000D4E435C0C5EBD4E432C0C6EBD4E42FC0FC
:10159000C3EBD4E42CC0C4EBD4E429C0C7EBD4E43F
:1015A00026C0CCECD4E423C0CDECD4E420C0C3E806
:1015B000D5E41DC0CAE8D5E41AC0C2E9D5E417C015
:1015C000C4E9D5E414C0C1E2D6E411C0C3E2D6E454
:1015D0000EC0C4E2D6E40BC0C5E2D6E408C0C6E241
:1015E000D6E405C0C7E2D6E402C0CAE2D6E4CE0122
:1015F000DF91CF9108958238910549F1B0F481339C
:10160000910509F458C048F48932910509F44EC097
:101610008A32910509F454C008958533910509F47F
:1016200040C08933910599F00895833E910529F1D1
:1016300038F4803E910591F0823E9105A1F0089525
:10164000863E9105F9F0873E910531F1089520918C
:101650009D0520FD3AC021FD38C0089580919D056B
:1016600080FD35C032C080919D0582FF32C08091DF
:101670009D0584FD30C083EE39C080919D0582FDBB
:1016800028C0F5CF80919D0583FF27C080919D05DF
:1016900084FD21C087EE2AC080919D0583FD1DC079
:1016A000F5CF80919D0585FD1AC01BC080919D05D9
:1016B00085FD17C014C080919D0586FD14C015C01E
:1016C00080919D0586FD11C00EC080EE0FC089E39C
:1016D0000DC082EE0BC080E009C086EE07C089E233
:1016E00005C085E303C08AE201C081E390E008956C
:1016F00090919D0592FF0DC0282F2871283019F474
:10170000877F846006C0282F2471243011F48B7FDA
:10171000886093FF0DC0282F2871283119F4877E27
:10172000846106C0282F2471243111F48B7E8861D6
:1017300094FD877E089508950F931F93CF93FB0127
:101740002281211102C0C1E041C08C01C091590425
:10175000C11125C086319C45B1F70E949B0B81E0E9
:10176000809359040E94FF1F90935804809357045C
:1017700010924C0410924E0410924D04109250049A
:1017800010924F041092520410925104109254047B
:1017900010925304109256041092550417C0809171
:1017A0005704909158040E940B20883C910558F6EC
:1017B00090914C04E92FF0E0EE0FFF1FE35BFB4F2D
:1017C000118300839F5F90934C04C0E08C2FCF91D6
:1017D0001F910F91089585B7806885BF85B7806890
:1017E00085BFA8E2B1E041E050E025E02A0F8D91ED
:1017F000E82FE295EF70F0E031A18F70BA0102C0DE
:10180000660F771F8A95E2F7CB01962F9095932369
:1018100091A392A1892B82A32A13E9CFA9E1B1E078
:1018200041E050E02FE02A0F8D91E82FE295EF7014
:10183000F0E031A18F70BA0102C0660F771F8A9560
:10184000E2F7CB01962F9095932391A392A1892B38
:1018500082A32A13E9CFE4E6F4E0AAE5B4E011920A
:1018600011921D921D9274E0EE36F707C1F70C94A9
:10187000FF082F923F925F926F927F928F929F927A
:10188000AF92BF92CF92DF92EF92FF920F931F938E
:10189000CF93DF9328E2C22E21E0D22E0AE514E096
:1018A000E801EE24E394F12C662463945E018880C1
:1018B000998019821882D6018D916D01E82FE295E9
:1018C000EF70F0E021A18F70A70102C0440F551FF7
:1018D0008A95E2F7CA01242B21A322A1742E7094C9
:1018E000272122A350EA5A95F1F799E1292E91E098
:1018F000392E20E030E0D1017D911D01472F429526
:101900004F7050E0DA0190965C90488159817F7069
:10191000D70102C0AA0FBB1F7A95E2F7BD0165216E
:1019200041F4B701022E02C0660F771F0A94E2F756
:1019300002C060E070E0462B572B598348832F5F2D
:101940003F4F2F303105B9F691A1792271A292A1B2
:10195000892B82A32296F5018081918188169906B0
:1019600041F060926E040E94FF1F90937004809378
:101970006F04F4E0C436DF0709F098CF80916E045D
:101980008823B1F080916F04909170040E940B2025
:10199000069770F0E4E6F4E0D8018D919D918D01F9
:1019A00081939193B4E004361B07B1F710926E0453
:1019B0000E94910881E0DF91CF911F910F91FF90DC
:1019C000EF90DF90CF90BF90AF909F908F907F90DF
:1019D0006F905F903F902F900895E82FF0E0EE0F0A
:1019E000FF1FEC59FB4F8081918108950895EF927C
:1019F000FF920F931F93CF93DF93E901662309F4BE
:101A00004BC0242F30E0EFEFF0E0E61BF109B90105
:101A1000E69F9001E79F300DF69F300D1124232F94
:101A20008B01031B11095CE3E52EF12CB7010E9429
:101A3000E72DFB01BC01069FC001079F900D169F7B
:101A4000900D1124B7010E94E72DE230F105B1F0AD
:101A500040F4309779F0319711F5832F242F461BEE
:101A600021C0E430F105A1F068F03597C1F4842F6E
:101A7000861B18C0832F262F230F14C0862F830F99
:101A8000E42F03C0E42FE61B842F432F2E2F0AC020
:101A9000842F462F430F06C0842F242F03C080E0DD
:101AA00020E040E0E42FF0E0ED5EFA4F4491E22FB9
:101AB000F0E0ED5EFA4F9491E82FF0E0ED5EFA4F22
:101AC000E49149839883EA83DF91CF911F910F912D
:101AD000FF90EF90089588E090E00C94592EAB01B0
:101AE000BC0188E090E00C94772EEFE5F5E083E010
:101AF0008083109260058FEF8283838360915F05FE
:101B00007091600580916105909162050C946F0D54
:101B100060915F0560FF06C066956F7370E080E0BE
:101B200090E0089560E070E0CB01089580915F053A
:101B300080FF06C060E170E087E695E00C94D31268
:101B400080E090E0FC01E959FA4F11821082128284
:101B5000039680339105B1F7EDCF90915F0590FF2B
:101B60000FC020E030E0F901E959FA4F818360832A
:101B700042832D5F3F4F20333105A9F70C94960D1A
:101B80000895EF92FF920F931F93CF93DF9300D0AE
:101B90001F92CDB7DEB700915F05109160052091CF
:101BA00061053091620500936305109364052093ED
:101BB00065053093660520915F0520FF21C0042F45
:101BC000F62EE92E182F9E012F5F3F4F0E94F70C33
:101BD0008091630510FB87F98093630516958091CA
:101BE00064058078182BE0FA17F910936405F092D9
:101BF0006505009366054B8169818A810E94AD0D60
:101C00000F900F900F90DF91CF911F910F91FF9048
:101C1000EF9008958F929F92AF92BF92CF92DF92F2
:101C2000EF92FF920F931F93CF93DF93EC01062F58
:101C3000142F80915F0580FF8EC0982F9E77923081
:101C400021F4CE010E94C10D5CC0E82FE695EF7330
:101C50009EE39E0F9F73943018F41091620551C05B
:101C60009AE39E0F9F73993070F4881F8827881F0E
:101C700090916005292F220FC22FC82B97FB99271F
:101C800090F9D92F3EC087E28E0F8F738A30C8F546
:101C9000F0E07997E0FD02C021E001C02FEFEE7F78
:101CA000E750FB4F85919491AC0184E056954795A0
:101CB0008A95E1F724036001259FD00C11244E0181
:101CC00088E9881A8EEF980A97E6E92E95E0F92EB2
:101CD00028E6A22EBB24B394C401B5010E94E72DCF
:101CE0009701412F602F0E94F70C8C0C9D1C93E0F4
:101CF000E90EF11C87E9E81685E0F80669F70E940D
:101D0000960D80915F059C2FC0FB87F980935F053E
:101D10009695809160058078892BD0FB87F9809318
:101D20006005009361051093620560915F057091F5
:101D300060058091610590916205DF91CF911F91BF
:101D40000F91FF90EF90DF90CF90BF90AF909F905A
:101D50008F900C946F0DDF91CF911F910F91FF9099
:101D6000EF90DF90CF90BF90AF909F908F900895AD
:101D7000EFE5F5E02081221F2227221F3091600528
:101D8000432F440F842F822B37FB992790F9049619
:101D900068E671E00E94FB2D438162810C940A0E7B
:101DA00020915F05221F2227221F30916005432FBB
:101DB000440F842F822B37FB992790F984309105AB
:101DC0001CF48C599E4F01C0049768E671E00E9494
:101DD000FB2D40916205609161050C940A0E6091A3
:101DE0006105862F90E08C3F910514F46C5F01C073
:101DF0006FEF80915F05881F8827881F909160058D
:101E0000292F220F97FB992790F940916205822B89
:101E10000C940A0E60916105862F90E0049714F0EF
:101E2000645001C060E080915F05881F8827881F8B
:101E300090916005292F220F97FB992790F94091E7
:101E40006205822B0C940A0E40916205842F90E06B
:101E50008C3F910514F44C5F01C04FEF80915F05FA
:101E6000881F8827881F90916005292F220F97FBD4
:101E7000992790F960916105822B0C940A0E40918C
:101E80006205842F90E0049714F0445001C040E0B4
:101E900080915F05881F8827881F90916005292FF2
:101EA000220F97FB992790F960916105822B0C9482
:101EB0000A0E90915F0590FF42C09178811102C097
:101EC000926007C0833210F0946403C08F73880F50
:101ED000982B90935F0560915F05709160058091EC
:101EE0006105909162050E946F0D80915F05982FAA
:101EF0009E77923019F41092860410C0982F969510
:101F00009F732EE3290F2F73273120F491E09093D4
:101F1000860404C0995D9F739A3068F3881F8827F0
:101F2000881F90916005292F220F97FB992790F920
:101F30004091620560916105822B0C940A0E089510
:101F40008091310581608093310581E08093870421
:101F50000E94E01E811104C00E94BA1E0E94750DED
:101F60000E946B0D60935F0570936005809361051F
:101F7000909362056E7761F40E94750D0E946B0D5F
:101F800060935F057093600580936105909362058F
:101F900081E08093860480915F0580FF04C0869570
:101FA0008F730C94590F089580915F0586958F73F8
:101FB0008F5F833208F081E00C94590F80915F05A8
:101FC00086958F73815009F482E20C94590FCF9358
:101FD000DF93CFE5D5E088818160888360915F05DC
:101FE0007091600580916105909162050E946F0D6E
:101FF000888186958F73DF91CF910C94590FEFE50F
:10200000F5E080818E7F808360915F05709160052F
:1020100080916105909162050E946F0D1092860477
:102020002FEF80E792E0215080409040E1F700C020
:1020300000000C94960D80915F0580FD0C94FF0FBD
:102040000C94E70FCF93C82F80918404909185045E
:102050000E940B20EC2FF0E0E15FFA4FE491F0E0FA
:102060008E179F0708F443C00E94FF1F90938504BA
:10207000809384046091830470E080E090E00E948B
:10208000D82B20E030E04FE753E40E94FB2A2BEDF1
:102090003FE049E450E40E94012D0E946E2D0E9411
:1020A000752B2BE43AE34EE25FE30E948E2A20EF89
:1020B0003BEF48ED52E40E94012D0E94A72B462FD2
:1020C00080915F05881F8827881F90916005292FC0
:1020D000220F97FB992790F960916105822B0E944E
:1020E000C10D8091830490E0019680938304CF9189
:1020F0000895CF93C82F80918104909182040E940B
:102100000B20EC2FF0E0E45FFA4FE491F0E08E1743
:102110009F07E8F00E94FF1F909382048093810440
:10212000409162056091610580917F0490918004E7
:102130000E94C10D80917F0490918004019668E611
:1021400071E00E94E72D9093800480937F04CF91EB
:102150000895CF92DF92FF920F931F93CF93DF9357
:10216000F82E80917D0490917E040E940B20EF2D2B
:10217000E695F0E0E75FFA4FE491F0E08E179F07F5
:10218000F0F10E94FF1F90937E0480937D0407E688
:1021900015E0C0E0D0E088E6C82EDD24D39480911D
:1021A0007B0490917C048C0F9D1FB6010E94E72D4B
:1021B000980140916205609161050E94F70C669656
:1021C0000D5F1F4FC03681E0D80749F70E94960D7A
:1021D00020917B0430917C04F0FE0BC0C901019674
:1021E00068E671E00E94E72D90937C0480937B0465
:1021F00006C02150310930937C0420937B04DF9189
:10220000CF911F910F91FF90DF90CF900895AF92E3
:10221000BF92CF92DF92EF92FF920F931F93CF93D3
:10222000DF93C82F80FF02C01FEF01C011E0809133
:10223000790490917A040E940B20C695EC2FF0E06F
:10224000EA5FFA4FE491F0E08E179F0708F465C04B
:102250000E94FF1F90937A048093790427E6C22E90
:1022600025E0D22E39E6E32E35E0F32EC0E0D0E0B3
:10227000F70131971082F6011082F701108294E085
:10228000A92EB12C00E080917804800F87FD805F3B
:10229000082E000C990BC817D907E9F48091620544
:1022A0008A9DA0018B9D500D1124559547955595FC
:1022B000479580915F05881F8827881F909160054A
:1022C000592F550F97FB992790F996016091610559
:1022D000852B0E94F70C010FF1E0AF1AB10899F6B7
:1022E000219683E0C80ED11CE3E0EE0EF11CC03154
:1022F000D10509F0BDCF0E94960D80917804113070
:1023000031F4811102C08FE006C0815004C090E01A
:1023100001968F70992780937804DF91CF911F9158
:102320000F91FF90EF90DF90CF90BF90AF90089506
:10233000EF92FF920F931F93CF93DF93C82F80915B
:102340007604909177040E940B20EC2FF0E0ED5F73
:10235000FA4FE491F0E08E179F0708F464C00E94E2
:10236000FF1F909377048093760480E090E0FC0157
:10237000E959FA4F11821082128203968033910537
:10238000B1F787E6E82E85E0F82E09E615E0C0E013
:10239000D0E080917504082E000C990BC817D9075E
:1023A000ECF080910501082E000C990B8C179D070D
:1023B000ACF080915F05881F8827881F9091600589
:1023C000592F550F97FB992790F997014091620576
:1023D00060916105852B0E94F70C07C0F8013197C9
:1023E0001082F7011082F80110822196F3E0EF0EBF
:1023F000F11C0D5F1F4FC031D10559F60E94960D9B
:102400008091040190917504980F90937504209128
:102410000501280F20930501121614F49F301CF0BB
:10242000819580930401DF91CF911F910F91FF90CF
:10243000EF900895EF92FF920F931F93CF93DF9346
:1024400080917304909174040E940B20883E934005
:10245000D0F10E94FF1F9093740480937304C09185
:102460007104D09172042196C170DD27D09372045B
:10247000C093710487E6E82E85E0F82E10E008E7A7
:10248000812F8695FE01E80FF11DCF0181709927FC
:1024900097014091620560916105FC010E9FC001AA
:1024A0000F9F900D11240E94F70C1F5FF3E0EF0EB9
:1024B000F11C103129F7DF91CF911F910F91FF90FF
:1024C000EF900C94960DDF91CF911F910F91FF909B
:1024D000EF90089580918604882391F190915F0593
:1024E000892F86958F732EE3280F2F73243018F4CD
:1024F00082500C9422102AE3280F2F73233018F4F3
:1025000086500C94791027E3280F2F73263018F487
:1025100089500C94A91021E3280F2F73263018F44A
:102520008F500C9407112BE2280F2F73233018F4CF
:1025300085510C9498119E77903311F40C941A12D3
:1025400008952EB1342F309523233EB1432B3FB74E
:10255000F894FC01680F791FE617F70789F081915D
:1025600098E04EB9000000C087FF2EB9880F000028
:1025700000C000C000C02EB900C09A9591F7ECCF02
:102580003FBF08952DB1242B2DB99B01220F331F7E
:10259000620F731F0E94A11287EC90E00197F1F780
:1025A00000C00000089544E00C94C21290938D0482
:1025B00080938C040895E0918C04F0918D04309701
:1025C00021F00190F081E02D099480E00895E091E0
:1025D0008C04F0918D04309721F00280F381E02D7E
:1025E00009940895E0918C04F0918D04309721F0C6
:1025F0000480F581E02D0994089520918A0430919A
:102600008B048217930771F090938B0480938A0454
:10261000E0918C04F0918D04309721F00680F781D1
:10262000E02D09940895209188043091890482173F
:10263000930771F09093890480938804E0918C044F
:10264000F0918D04309721F00084F185E02D0994FC
:10265000089508950C94291381E008950E94F61FAF
:102660000E94EB0B0E947F200E94AC220C94A00FD2
:102670004F925F927F928F929F92AF92BF92CF9232
:10268000DF92EF92FF920F931F93CF93DF93CDB71B
:10269000DEB72A970FB6F894DEBF0FBECDBF0E94FB
:1026A000390C0E942C13811111C08FEF89838A830A
:1026B0001B820E94FF1F8160782F9D838C8349813C
:1026C0005A816B818D810E94F61357C09FE8C92EF5
:1026D00094E0D92E00E010E0AA24A394B12C702E2F
:1026E000802F0E94ED0C4C01F601419051906F013A
:1026F000482659264114510431F40F5F1F4F05300D
:10270000110569F7D2CF8091310581FD0E94F60C49
:1027100020E030E07501022E02C0EE0CFF1C0A948E
:10272000E2F7C70184219521892B09F12E837F824D
:102730008E209F2091E0892809F490E098870E94DC
:10274000FF1F8160782F9A8789874E815F81688516
:102750008A850E94F613000F111FF801E157FB4F05
:1027600080819181E826F926F182E08206C02F5F00
:102770003F4F2F30310571F6C0CF0E9412221091C9
:102780008E040E94DB121817D9F00E94DB1280938E
:102790008E042A960FB6F894DEBF0FBECDBFDF9130
:1027A000CF911F910F91FF90EF90DF90CF90BF904E
:1027B000AF909F908F907F905F904F900C94030903
:1027C0002A960FB6F894DEBF0FBECDBFDF91CF9132
:1027D0001F910F91FF90EF90DF90CF90BF90AF903F
:1027E0009F908F907F905F904F900895CF93DF934D
:1027F000CDB7DEB72B970FB6F894DEBF0FBECDBFB7
:102800004F83588769877A878B87DE01119686E028
:10281000FD0111928A95E9F785E0FE013796019056
:102820000D928A95E1F749815A816B817C818D8176
:102830009E810E94271B2B960FB6F894DEBF0FBE19
:10284000CDBFDF91CF910895FC01808191810E94DD
:10285000EF1D0895882309F4F3C0682F8238C1F46E
:102860000E94DB1281FDECC069E38091060190912A
:1028700007010E94611F0E944E1E2FEF81EE94E01F
:10288000215080409040E1F700C0000069E319C08A
:102890008338F9F40E94DB1280FDD2C063E5809199
:1028A0000601909107010E94611F0E944E1E2FEFAA
:1028B00081EE94E0215080409040E1F700C000009C
:1028C00063E580910601909107010E946C1F0C94B2
:1028D0004E1E8438C1F40E94DB1282FDB1C067E451
:1028E00080910601909107010E94611F0E944E1E77
:1028F0002FEF81EE94E0215080409040E1F700C03E
:10290000000067E4DECF8CEF860F813A38F48091C7
:102910000601909107010E94611FD9CF80E2860FC6
:10292000883048F4677081E001C0880F6A95EAF743
:102930000E94841ECCCF8BE5860F833070F4653AFD
:1029400029F0663A31F083E890E005C081E890E034
:1029500002C082E890E00C94FD1288E5860F853174
:1029600008F06EC0683A61F1693A69F16A3A71F14A
:102970006B3A79F16C3A81F16B3B89F16C3B91F1E7
:102980006D3A99F1603BA1F16E3AA9F16F3AB1F15C
:10299000613BB9F1623BC1F1633BC9F1643BD1F1E9
:1029A000653BD9F1663BE1F1673BE9F1683BF1F149
:1029B000693BF9F16A3B09F43FC080E090E03EC01A
:1029C00082EE90E03BC089EE90E038C08AEE90E065
:1029D00035C085EB90E032C086EB90E02FC083EBF2
:1029E00090E02CC084EB90E029C087EB90E026C0FB
:1029F0008CEC90E023C08DEC90E020C083E891E067
:102A00001DC08AE891E01AC082E991E017C084E90C
:102A100091E014C081E292E011C083E292E00EC026
:102A200084E292E00BC085E292E008C086E292E088
:102A300005C087E292E002C08AE292E00C94131390
:102A40000895882309F45BC0682F823879F40E94C6
:102A5000DB1281FF54C069E3809106019091070168
:102A60000E94611F0E944E1E69E310C08338B1F4BA
:102A70000E94DB1280FF43C063E5809106019091C4
:102A800007010E94611F0E944E1E63E580910601AE
:102A9000909107010E946C1F0C944E1E843879F4AB
:102AA0000E94DB1282FF2BC067E4809106019091A7
:102AB00007010E94611F0E944E1E67E4E7CF8CEF62
:102AC000860F813A18F380E2860F883048F46770E9
:102AD00081E001C0880F6A95EAF70E948A1EDCCF68
:102AE0008BE5860F833020F480E090E00C94FD129B
:102AF000685A653120F480E090E00C941313089537
:102B0000882321F00E94841E0C944E1E0895882371
:102B100021F00E948A1E0C944E1E08954F925F92DF
:102B20006F927F92AF92BF92CF92DF92EF92FF921D
:102B30000F931F93CF93DF931F92CDB7DEB77C0126
:102B4000A72EFC01058102950F701281112321F03F
:102B500069830E94A11E698169830E94471E698161
:102B6000882381F0112371F080E2860F883050F0C5
:102B700082E00E94301E0E94471E91E0B82EB926C6
:102B8000698101C0B12CCA2CC2948FE0C822D12C1B
:102B9000F601E859FF4F0C94312E8A2D807F0A2DC3
:102BA0000F70882311F00295007F1123C1F00023DC
:102BB00009F4DDC180E2860F883010F0611105C094
:102BC000802F69830E94841E04C0802F69830E9425
:102BD000941E698169830E944E1E6981C8C1862F37
:102BE00069830E9421156981002309F408C280E2EB
:102BF000860F883010F0611104C0802F0E948A1E59
:102C000003C0802F0E949A1E0E944E1EF8C18A2D7A
:102C1000807F9A2D9F70803211F4892F03C0892FF5
:102C20008295807F662319F06130B1F01FC01123B7
:102C300049F0002309F452C1013009F04FC10E944C
:102C4000B41EDDC1002319F0013009F4D8C1898315
:102C50000E94B71E898148C1112321F0063008F077
:102C6000CEC13CC1053008F0CAC13EC1112351F0AC
:102C7000002309F433C1F701958190FF78C19F705B
:102C800095832CC1002309F42FC182C18A2D86951A
:102C90008695837090E0009719F0019761F0AFC1BD
:102CA000112321F0862F9A2D937002C080E090E0CE
:102CB0000E94FD12B4C1112321F0862F9A2D93702A
:102CC00002C080E090E00E941313A9C11123F9F023
:102CD000653F51F0663F71F0643FA9F4809197051C
:102CE0009091980581600BC080919705909198050F
:102CF000826005C0809197059091980584609093BB
:102D0000980580939705862F0E941A211EC0653F63
:102D100051F0663F71F0643FA9F48091970590915E
:102D200098058E7F0BC080919705909198058D7FB7
:102D300005C080919705909198058B7F9093980599
:102D400080939705862F0E9482210E94072267C1E7
:102D50008A2D837009F052C011115DC1862F8295B2
:102D600086958770880F880F962F9F70492E512C5B
:102D7000612C712C082E04C0440C551C661C771C59
:102D80000A94D2F764FF14C00FE010E020E030E0B6
:102D9000B901A80104C0440F551F661F771F8A950B
:102DA000D2F7CB01BA01609570958095909503C0DC
:102DB00060E070E0CB012A2D26952695237030E047
:102DC0002230310569F02330310589F064297529F5
:102DD000862997292130310571F00E946A1C1BC198
:102DE00064297529862997290E947C1C14C10E9498
:102DF0006A1CC301B2010E94581C0DC1112319F0B5
:102E00008A2D817001C08695882309F404C1862F1C
:102E1000829586958770880F880F962F9F70492E10
:102E2000512C612C712C082E04C0440C551C661CBE
:102E3000771C0A94D2F764FF14C00FE010E020E082
:102E400030E0B901A80104C0440F551F661F771F69
:102E50008A95D2F7CB01BA016095709580959095CF
:102E600003C060E070E0CB012A2D269526952370E3
:102E7000422F50E04230510569F04330510589F04E
:102E800064297529862997294130510571F00E94DE
:102E9000301DC1C064297529862997290E94421DC9
:102EA000BAC00E94301DC301B2010E941E1DB3C0F2
:102EB000862F90E0FC01E05EF109E531F10508F0B4
:102EC00052C0E858FF4F0C94312E062F0F708A2DF8
:102ED0008F71112331F00E94B71C802F0E94801542
:102EE0008EC00E94D81C802F0E94871588C0112395
:102EF00041F0053008F083C08A2D8F710E94FD1CBF
:102F00007EC0063008F07BC0F7CF112339F08A2D40
:102F10008F710E94B71C73C01123C9F38A2D8F7162
:102F20000E94D81C6CC0112329F08A2D8F710E9439
:102F3000A21C65C00E949D1C62C0112351F01A2D75
:102F40001F71812F0E94B71C63E0812F0E94271EF2
:102F500056C081E00E94301E023008F450C082E06A
:102F60000E94301E4CC0112331F0002381F2862FC5
:102F70000E942A1444C0002389F2693349F45FEFA8
:102F800077EE83E0515070408040E1F700C00000D0
:102F9000862F0E94211533C04A2D4F70C7010E9411
:102FA0006B050E94CB1B3BC0111139C08A2D8F705D
:102FB00090E08230910599F03CF4009769F0019718
:102FC000F1F40E94E6222BC08430910571F054F098
:102FD0000597A9F480E00AC00E94C92220C00E947F
:102FE00002231DC00E941C231AC085E00E943F23BB
:102FF00016C04A2D4F70C7010E94050910C098E005
:10300000C916D10441F05CF0FAE0CF1AD10822E0F1
:10301000C216D10420F40E94DB120E940309BB20D7
:1030200001F10E94231E80FD1CC0F70112820E9444
:103030001D1E0E94B71CC7010E9441180E941D1E40
:103040000F90DF91CF911F910F91FF90EF90DF9044
:10305000CF90BF90AF907F906F905F904F900C9407
:10306000D81C0F90DF91CF911F910F91FF90EF909F
:10307000DF90CF90BF90AF907F906F905F904F9018
:1030800008950F931F93CF93DF93EC01888199816B
:103090002B813C81232BB9F09F3F11F48F3F99F096
:1030A000CE010E949405882371F0688179818A811C
:1030B0000E94FA1D8C010E94541D0E94551CB801EB
:1030C000CE010E948E15DF91CF911F910F9108952F
:1030D0000E94A11E0E94B11E8091060190910701DD
:1030E0000E94771F0E944E1E0E94A0220E9407226B
:1030F00080E090E00E94FD1280E090E00C941313B9
:103100000E94911E0C9468180E94EF1DE92FE29511
:10311000EF70F0E03297EE30F105B0F4E357FF4F77
:103120000C94312E803F91F018F4803E68F40EC06C
:10313000843F51F40BC0803E48F0813F29F406C023
:1031400093FB882780F9089580E0089581E0089531
:10315000CF93DF9300D000D01F92CDB7DEB70F9092
:103160000F900F900F900F90DF91CF910895CF9314
:10317000DF9300D000D000D0CDB7DEB726960FB6D3
:10318000F894DEBF0FBECDBFDF91CF9108951F939E
:10319000CF93DF93C0919A0416E080919B04C817E7
:1031A00099F0D0E01C9FF0011D9FF00D1124E45612
:1031B000FB4F4081518162817381848195810E949E
:1031C000B7182196C770E9CFDF91CF911F9108956D
:1031D0004091CC045091CD046091CE047091CF0405
:1031E0008091D0049091D1040C94B7188091D104AF
:1031F00082958F7009F054C08091CE04882309F421
:103200004FC080919A04A0919B046091CC0470916E
:10321000CD044091CF045091D004B6E08A1709F450
:103220003FC090E041155105C1F17F3F11F46F3F60
:10323000A1F1B89FF001B99FF00D1124E456FB4FA6
:10324000218172132AC02081621327C0228121119B
:1032500024C0238134812417350710F4215031090B
:10326000241B350B283C3105C0F42091D1042F706C
:1032700020612093D10426E0289FF001299FF00DC2
:103280001124EF55FB4F80818F70806180838CEC1F
:1032900094E00E9441180C94C71801968770BECF25
:1032A0000895CF92DF92EF92FF920F931F93CF93E7
:1032B000DF93CDB7DEB762970FB6F894DEBF0FBECF
:1032C000CDBF8C0185E0F801DE011D9601900D92C5
:1032D0008A95E1F7D8014C9111965C91119712965D
:1032E0006C9112971396CD90DC9014973091CC048A
:1032F0007091CD048091CF049091D004009709F48F
:103300006BC17F3F19F43F3F09F466C1E090CE04E2
:10331000EE2009F4C0C02091D104C816D90628F0C7
:10332000F601E81BF90BCF0104C0809590958C0D38
:103330009D1DFF24F394883C910578F0F12C207FAB
:1033400009F0C6C07C2DD98AC88A89890E94A8182C
:103350008CEC94E00E944118B1C0822F807F09F06C
:1033600046C0751314C0341312C0611110C02F7001
:1033700020612093D1040E94E8188CEC94E00E9414
:1033800041188091D104D80115968C932EC0CD2878
:1033900019F15F3F11F44F3FF9F0F62E61111CC097
:1033A00080919A0420919B0436E0821709F45AC058
:1033B00090E0389FF001399FF00D1124E456FB4F47
:1033C0007181571306C07081471303C07281711158
:1033D00003C001968770E9CFF62E662309F427C152
:1033E0008091D10481608093D104F12C20C17513A8
:1033F00008C0341306C0611104C08091D104D80103
:10340000C3C04D875E878D859E856A8B0E94841818
:103410006A898823E1F16623D1F12091D104822FBA
:1034200082958F7090E0029774F08091CC04909117
:10343000CD0498878F831986DB86CA862C87CE01B8
:1034400007960E94411886E0F801ACECB4E00190C8
:103450000D928A95E1F70E94F6180E94E818FF2461
:10346000F394E5C04D875E878D859E850E94EF1D94
:10347000292F22952F7030E0223031050CF0CBC07F
:103480009F7009F0C5C0805E883008F4D0C0C801C4
:103490000E944118E4CFC816D90608F453C0F601BB
:1034A000E81BF90BCF01883C910508F450C0F12CC2
:1034B0007C2DD98AC88A89890E94A818ECECF4E08E
:1034C00086E0DF011D928A95E9F70E94E818AFC0F7
:1034D000751314C0341312C0611110C08091D1044F
:1034E000F8018583C8010E94411886E0ECECF4E005
:1034F000DF011D928A95E9F7FE2C99C04D875E8702
:103500008D859E856A8B0E9484186A89882309F4B8
:10351000BECF662309F4BBCF2091D104822F8295C0
:103520008F7090E002970CF48ECF8091CC04909134
:10353000CD049A8389831B82DD82CC822E83CE01C7
:1035400001967FCF809590958C0D9D1DACCFF62E6A
:10355000662309F49CCF75132EC034132CC0209120
:10356000D10420FD1FC0822F82958F70D9F0D80121
:1035700015962C9315978F3049F08F5F982F929561
:10358000907F822F8F70892B15968C93C8010E9493
:10359000411886E0F801ACECB4E001900D928A95F8
:1035A000E1F793CF86E0F801ACECB4E001900D9226
:1035B0008A95E1F73CC04D875E878D859E850E9488
:1035C0008418811140CF8091D10481608093D1040F
:1035D000C8010E9441182BC0662309F458CF4D87BB
:1035E0005E878D859E850E948418F82E882309F4B5
:1035F0004ECF86E0F801ACECB4E001900D928A95D4
:10360000E1F78CEC94E00E9424140E94F6185DCF40
:10361000811139CF0CC0243031050CF038CF9F70A8
:1036200009F431CFF8019581907F09F02CCF8F2DCF
:1036300062960FB6F894DEBF0FBECDBFDF91CF917B
:103640001F910F91FF90EF90DF90CF9008951F93FF
:10365000CF93DF93CDB7DEB72C970FB6F894DEBFCC
:103660000FBECDBF4F83588769877A878B879C872A
:10367000CE0107960E945119882369F08F819885A1
:103680002A853B85232BF1F19F3F09F063C08F3FD3
:1036900009F060C037C086E0FE013796DE01119662
:1036A00001900D928A95E1F76F817885EA85FB8517
:1036B000309741F17F3F11F46F3F21F120919B043E
:1036C00030E0C90101968770992740919A0450E033
:1036D0008417950709F447C069837A83FD83EC83D7
:1036E00096E0929FD001939FB00D1124A456BB4F3A
:1036F000FE01319601900D929A95E1F780939B041B
:103700000E94C71816E080919A0490919B04891733
:10371000C1F1189FC001112484569B4F0E9451197A
:10372000882379F1E0919A041E9FF0011124E45658
:10373000FB4F4081518162817381848195810E9418
:10374000B71880919A0490E001968770992780932A
:103750009A04D9CF4F81588569857A858B859C8558
:103760000E94B718CFCF0E94801810929B0410922D
:103770009A04ECECF4E086E0DF011D928A95E9F70B
:10378000C1CF2C960FB6F894DEBF0FBECDBFDF9130
:10379000CF911F910895EF92FF920F931F93CF93B4
:1037A000DF938C01892B09F46CC0F12CEE24E39497
:1037B000E8012196F8018491843740F4843008F0C0
:1037C00051C0813081F0823019F15BC0853709F436
:1037D00044C0A8F19CE7980F903708F052C08F774B
:1037E0000E94211541C00E5F1F4FFE01C49180E26F
:1037F0008C0F883048F4C7708E2D01C0880FCA9591
:10380000EAF70E94A41E14C08C2F0E942A142DC017
:103810000E5F1F4FFE01C49180E28C0F883058F478
:10382000C7708E2D01C0880FCA95EAF70E94AA1EA4
:103830000E944E1E1AC08C2F0E94211516C00E5FCA
:103840001F4FFE01C491CC2381F08FE99FE00197C7
:10385000F1F700C00000C150F6CF0E5F1F4FFE0110
:10386000F49003C00E942A148E018F2D882309F43E
:103870009FCFEFE9FFE03197F1F700C000008150E2
:10388000F5CFDF91CF911F910F91FF90EF900895A9
:1038900008950E94481C6093080570930905809361
:1038A0000A0590930B050C94681808950C94491C14
:1038B0000F931F93009108051091090520910A05A7
:1038C00030910B05602B712B822B932B1F910F9145
:1038D0000C94491C0F931F93009108051091090542
:1038E00020910A0530910B056023712382239323D5
:1038F0001F910F910C94491C0F931F930091080581
:103900001091090520910A0530910B056027712758
:10391000822793271F910F910C94491C08950C94B2
:103920008E1C0E948F1C6093040570930505809384
:103930000605909307050C94681860E070E0CB01D1
:103940000C94911C0F931F9341E050E060E070E0F5
:103950008A019B0104C0000F111F221F331F8A958B
:10396000D2F7C901B8011F910F910C94911C0F93CC
:103970001F9341E050E060E070E004C0440F551F29
:10398000661F771F8A95D2F78091040590910505EF
:10399000A0910605B09107058A019B01082B192B00
:1039A0002A2B3B2BC901B8011F910F910C94911C3C
:1039B0000F931F9341E050E060E070E004C0440FBB
:1039C000551F661F771F8A95D2F7409550956095D1
:1039D00070958091040590910505A0910605B09120
:1039E00007058A019B01082319232A233B23C901C8
:1039F000B8011F910F910C94911C0F931F9341E0FC
:103A000050E060E070E004C0440F551F661F771F50
:103A10008A95D2F78091040590910505A09106053D
:103A2000B09107058A019B01082719272A273B2700
:103A3000C901B8011F910F910C94911C0F931F9312
:103A400000910405109105052091060530910705A8
:103A5000602B712B822B932B1F910F910C94911C37
:103A60000F931F9300910405109105052091060501
:103A70003091070560237123822393231F910F91B7
:103A80000C94911C0F931F93009104051091050550
:103A9000209106053091070560277127822793271B
:103AA0001F910F910C94911C08952FE0929F800D0F
:103AB0001124A82FA695A695A695877051E001C060
:103AC000550F8A95EAF785E0A89FD001112420E0E0
:103AD00030E070E0F901EA0FFB1FEE52FB4F40812E
:103AE000CB01022E02C0969587950A94E2F7817069
:103AF0009927819584278523842780832F5F3F4FD3
:103B00002530310539F708952FE0929F800D11245B
:103B1000682F669566956695982F977085E0689FE3
:103B2000B001112440E050E080E0FA01E60FF71FF9
:103B3000EE52FB4F208130E0092E02C036952795CA
:103B40000A94E2F721703327042E01C0220F0A9451
:103B5000EAF7822B4F5F5F4F4530510531F70895EB
:103B6000CF92DF92EF92FF920F931F93CF93DF9349
:103B70008C01C0900805D0900905E0900A05F090EE
:103B80000B058091040590910505A0910605B09163
:103B90000705C82AD92AEA2AFB2ACFE1D0E0D701B3
:103BA000C6010C2E04C0B695A795979587950A94E3
:103BB000D2F780FF06C0B8018C2F0E942009019720
:103BC00021F4219760F780E001C08C2FDF91CF9125
:103BD0001F910F91FF90EF90DF90CF900895CF93BA
:103BE000DF93EC010E94B01DBE010E942009DF910D
:103BF000CF9108951F93CF93DF93EB019091990498
:103C0000992321F0CB010E94EF1D13C0882349F0B6
:103C1000CB010E94B01D182F682FCE010E94551DA8
:103C200004C0CB010E94841D182FBE01812F0E9469
:103C30002009DF91CF911F91089580910C05859502
:103C400085958595089580910C058770089598E075
:103C5000899F90011124262B20930C050C94B71CEE
:103C600020910C058095822380930C05982F9770E6
:103C700069F430E0482F082E000C550B2417350747
:103C800029F08595859585950C94D81C089590917B
:103C90000C05977081E009F480E00895E091060139
:103CA000F0910701809130058083E0910601F09149
:103CB0000701908180912F05892B8083E091060177
:103CC000F0910701908180912E05892B808380914E
:103CD0000D05882381F0E0910601F09107019081A4
:103CE000892B808380910601909107010E94051F16
:103CF000811110920D0580910601909107010C949D
:103D0000E71280913005089590913005892B8093BA
:103D10003005089580959091300589238093300572
:103D2000089510923005089590912F05892B809366
:103D30002F050895809590912F05892380932F0555
:103D4000089510922F05089590912E05892B809348
:103D50002E050895809590912E05892380932E0538
:103D6000089510922E05089580930D0508951092E0
:103D70000D0508956DEE7EEF80E090E00E94832EA9
:103D800060E082E090E00E94652E60E083E090E0D9
:103D90000E94652E60E084E090E00E94652E60E065
:103DA00085E090E00E94652E60E086E090E00E9451
:103DB000652E40E050E0BA0188E090E00C94772E48
:103DC00080E090E00E945F2E21E08D3E9E4F09F042
:103DD00020E0822F089582E090E00C94512E83E041
:103DE00090E00C94512E84E090E00C94512E682FBA
:103DF00084E090E00C94652E86E090E00C94512EC7
:103E0000682F86E090E00C94652EFC0131969C01B1
:103E1000205E3F4F80E0919191118F5FE217F30791
:103E2000D1F708959C01FC0132969FEF80E041910B
:103E3000461789F09F3F19F4411101C0982F8F5FF9
:103E40008E31A9F79F3F39F0F901E90FF11D97FD78
:103E5000FA95628308950895FC0132968096208138
:103E6000261301C010823196E817F907C1F70895AB
:103E7000262F2695269526952F3168F4FC01E20F12
:103E8000F11D677021E030E001C0220F6A95EAF76A
:103E90008181282B21830895262F26952695269506
:103EA0002F3170F4FC01E20FF11D677021E030E06A
:103EB00001C0220F6A95EAF720958181282321838A
:103EC000089520911801222329F020919D0527FDB6
:103ED0000C94381F0C94121F20911801222329F0F2
:103EE00020919D0527FD0C944C1F0C942C1FFC0168
:103EF000319680961192E817F907E1F708958091BD
:103F0000A405843051F11092320520E488E190E05C
:103F10000FB6F894A895809360000FBE20936000C0
:103F200080E00E94930880E00E94030983B7817FAC
:103F3000846083BF83B7816083BF7894889583B79B
:103F40008E7F83BF0FB6F894A8958091600088613A
:103F500080936000109260000FBE08950895089548
:103F6000CF930E94AE1F0E94390C0E94AF1FC0E089
:103F70008C2F0E94ED0C892B29F4CF5FC530C1F73F
:103F800080E001C081E0CF9108950E9480180E94D6
:103F9000AC220E94DB120C9403091F920F920FB601
:103FA0000F9211248F939F93AF93BF93809132050B
:103FB000811113C08091990590919A05A0919B055C
:103FC000B0919C054196A11DB11D809399059093D8
:103FD0009A05A0939B05B0939C05BF91AF919F91CB
:103FE0008F910F900FBE0F901F90189582E084BDA7
:103FF00093E095BD9AEF97BD80936E0008952FB71B
:10400000F8948091990590919A05A0919B05B091A3
:104010009C052FBF0895CF92DF92EF92FF920F93EE
:104020001F932FB7F8944091990550919A0560918C
:104030009B0570919C052FBF6A017B01EE24FF2434
:104040008C0120E030E0C016D106E206F30610F441
:10405000415051099A01281B390BC9011F910F9139
:10406000FF90EF90DF90CF90089578941F920F9279
:104070000FB60F9211248F939F93AF93BF938091AC
:10408000990590919A05A0919B05B0919C05019688
:10409000A11DB11D8093990590939A05A0939B054E
:1040A000B0939C05BF91AF919F918F910F900FBEE0
:1040B0000F901F90189581E08093E00080E280933C
:1040C000D8001092C9008FE19EE40197F1F700C07B
:1040D000000087E090EBDC018093AD059093AE0586
:1040E000A093AF05B093B0059CE088E10FB6F894BB
:1040F000A895809360000FBE90936000FFCF0E9450
:10410000E01E811102C00E94BA1E0E94EB1E809325
:1041100031050E94F31E90E090939E0580939D05CB
:104120000E94EF1E682F70E080E090E00C94561C17
:104130008091350580FF0BC060910B0185E0689F81
:10414000B001112475956795759567952BC081FF12
:1041500009C060910B0185E0689FB001112475953D
:10416000679520C082FF07C060910B0185E0689FC2
:10417000B001112417C0909136059923D1F06091B8
:104180000A01961788F720910B0185E0289F90017E
:104190001124929FA001939F500D112470E0CA0139
:1041A0000E94FB2D6038710540F46115710539F0EE
:1041B00002C065E070E0862F08958FE7089581E0E2
:1041C00008958091350580FF08C06091090170E075
:1041D000759567957595679521C081FF06C06091BB
:1041E000090170E07595679519C082FF04C0609160
:1041F000090170E010C0909136059923C1F06091DB
:1042000008019617A0F780910901899FC001112428
:1042100070E00E94FB2D6038710528F4611571056E
:1042200021F0862F08958FE7089581E0089561E0D9
:1042300070E0F4CF803F21F40E949820819504C063
:10424000813F29F40E949820809339050895823F88
:1042500021F40E949820819504C0833F29F40E9494
:104260009820809338050895893F19F40E94E12031
:1042700005C08A3F31F40E94E120819580933A0580
:1042800008958B3F21F40E94E120819504C08C3F6A
:1042900029F40E94E12080933B050895843F21F496
:1042A00080913705816017C0853F21F480913705E3
:1042B000826011C0863F21F48091370584600BC075
:1042C000873F21F480913705886005C0883F31F42D
:1042D0008091370580618093370508958D3F21F4E3
:1042E0008091350581600BC08E3F21F480913505AA
:1042F000826005C08F3F29F48091350584608093EA
:1043000035050895803F39F48091390587FF6CC0E9
:104310001092390569C0813F29F48091390518163A
:10432000BCF362C090913805823F29F497FF5CC0CE
:104330001092380559C0833F19F41916CCF354C0B4
:10434000893F41F480913A0518160CF04DC0109247
:104350003A054AC08A3F29F480913A0587FF44C054
:10436000F6CF8B3F39F480913B0587FF3DC010921B
:104370003B053AC08C3F29F480913B051816BCF3ED
:1043800033C0843F21F4809137058E7F17C0853F6D
:1043900021F4809137058D7F11C0863F21F48091F3
:1043A00037058B7F0BC0873F21F480913705877FCE
:1043B00005C0883F31F4809137058F7E80933705A3
:1043C00013C08D3F21F4809135058E7F0BC08E3F49
:1043D00021F4809135058D7F05C08F3F29F48091B0
:1043E00035058B7F809335058091380581110EC08E
:1043F0008091390581110AC080913A05811106C06A
:1044000080913B05811102C010923605089587E323
:1044100095E00E94F2120E94FF1F90933405809352
:10442000330508951F93CF93DF93809133059091C7
:1044300034050E940B20AC0190913605992321F0A0
:1044400020910C0130E006C020910D018AE0289FE8
:10445000900111244217530708F46EC0809138056B
:10446000C0913905D0913A0510913B05811107C0E3
:10447000C1115EC0D1115CC011115AC05DC09F3F17
:1044800019F09F5F90933605181624F40E94982027
:10449000809338058091380587FF05C00E949820D9
:1044A0008195809338051C1624F40E9498208093EF
:1044B00039058091390587FF05C00E9498208195B4
:1044C0008093390540913805442379F030913905BE
:1044D000332359F025EB4203A001112450933805F2
:1044E0003203C0011124909339051D1624F40E9453
:1044F000E12080933A0580913A0587FF05C00E942C
:10450000E120819580933A05111624F40E94E12060
:1045100080933B0580913B0587FF05C00E94E12009
:10452000819580933B05DF91CF911F910C940722D9
:104530009F3F09F0A6CFAECFDF91CF911F91089595
:10454000E7E3F5E085E0DF011D928A95E9F7109237
:1045500036051092350508950E94E01E811102C0B3
:104560000E94BA1E0E94FC1E80939F05282F26954C
:1045700030E02630310524F081708A6080939F05F9
:1045800080919F0580FF02C0869501C080E00C9459
:10459000930820919F05822F8695482F50E0453043
:1045A000510544F48F5F982F990F822F8170892BCA
:1045B00080939F0580919F05816080939F050E9455
:1045C000001F80919F0586950C94930880919F050C
:1045D000982F969591F09158990F8170892B80931F
:1045E0009F058E7F91E009F490E080919F0590FBFC
:1045F00080F980939F050E94001F80919F058695FA
:104600000C94930880919F05982F909590FB80F9CA
:1046100080939F05813019F483E080939F058091FA
:104620009F050E94001F80919F0580FF02C0869514
:1046300001C080E00C94930890919F05892F869586
:104640008F5F8F779170863028F4880F892B809345
:104650009F0502C090939F0580919F058E7F91E0FA
:1046600009F490E080919F0590FB80F980939F056D
:104670000E94001F80919F0586950C9493088630B8
:1046800008F085E0880F90919F059170892B8093A9
:104690009F058E7F91E009F490E080919F0590FB4B
:1046A00080F980939F050E94001F80919F05869549
:1046B0000C94930880915C0508950F931F93CF93FA
:1046C000DF9300D01F92CDB7DEB78C010E94D525B5
:1046D000823011F0843019F593E099831B830A83AB
:1046E0009093E9008FEF9091E800815095FD06C00E
:1046F00095ED9A95F1F700008111F5CF8091E800D2
:1047000085FF0DC040E050E063E070E0CE0101960F
:104710000E94F2258091E8008E778093E8000F9048
:104720000F900F90DF91CF911F910F910895CF932C
:10473000DF9300D01F92CDB7DEB72091A4052430BF
:1047400031F522E02983805891099B838A8383E095
:104750008093E9008FEF9091E800815095FD06C0AD
:1047600095ED9A95F1F700008111F5CF8091E80061
:1047700085FF0DC040E050E063E070E0CE0101969F
:104780000E94F2258091E8008E778093E8000F90D8
:104790000F900F90DF91CF910895CF93DF93EC01AD
:1047A0000E94D525823011F08430F9F482E08093A4
:1047B000E9009FEF8091E800915085FD06C085EDEE
:1047C0008A95F1F700009111F5CF8091E80085FFFF
:1047D0000CC040E050E065E070E0CE010E94F225A0
:1047E0008091E8008E778093E800DF91CF91089563
:1047F000CF93DF93EC010E94D525823019F08430ED
:1048000009F047C0809118018823E1F080919D054F
:1048100087FF18C084E08093E9008FEF9091E80053
:10482000815095FD06C095E19A95F1F70000811140
:10483000F5CF8091E80085FF2CC040E050E060E2B9
:1048400070E017C081E08093E9008FEF9091E8005D
:10485000815095FD06C095ED9A95F1F70000811104
:10486000F5CF8091E80085FF14C040E050E068E09B
:1048700070E0CE010E94F2258091E8008E7780934F
:10488000E80080E2FE01ACE3B5E001900D928A956C
:10489000E1F7DF91CF9108958091A305811109C0BF
:1048A0000E9487270E94E4278091E2008460809321
:1048B000E20008951092A3050895089508950C94B8
:1048C000C51F42E061EC81E00E94012742E061ECFB
:1048D00082E00E94012742E061EC83E00E94012710
:1048E00042E261EC84E00C9401278091A6058330BC
:1048F00009F455C030F4813071F0823009F48EC073
:1049000008958A3009F47AC08B3009F460C0893088
:1049100009F09CC020C08091A505813A09F096C09D
:104920008091E800877F8093E8008091A9059091AD
:10493000AA05892B21F460E28CE395E003C060E0D6
:1049400080E090E070E00E943D268091E8008B7747
:104950008093E80008958091A505813209F076C022
:104960008091A9059091AA05009719F0039709F085
:104970006DC08091E800877F8093E8008091E80017
:1049800082FD05C08091A4058111F8CF5FC08091A0
:10499000F10080935C058091E8008B7753C0809193
:1049A000A505813A09F052C08091A9059091AA0508
:1049B000892B09F04BC08091E800877F8093E80045
:1049C0008091E80080FFFCCF8091180136C0809173
:1049D000A5058132D9F58091A9059091AA05892B69
:1049E000A9F58091E800877F8093E8000E94362730
:1049F0008091A705809318010C9480188091A505DB
:104A0000813221F58091E800877F8093E8000E9441
:104A100036278091A80580935D0508958091A505AE
:104A2000813AA1F48091E800877F8093E80080912B
:104A3000E80080FFFCCF80915D058093F1008091BC
:104A4000E8008E778093E8000C943627089584B7A9
:104A5000877F84BF0FB6F894A89580916000886125
:104A600080936000109260000FBE80E88093610028
:104A7000109261000E942A130E9487270E94E42757
:104A80008091E20084608093E20078940E94732A0F
:104A90000E942E138EE091E00E94D6128091A40510
:104AA000853069F40E947F1F8091A2058823B1F3AD
:104AB0000E94B01F882391F30E94DC25EFCF0E9453
:104AC00038130E946A12EACF0C946625292F3327E7
:104AD00023303105C9F064F42130310581F02230F2
:104AE000310509F049C08DE690E027E336E048C083
:104AF0002132310521F12232310571F13DC082E1CF
:104B000090E024EA36E03CC099278130910571F0AD
:104B10002CF4892B89F5E3E3F6E00DC08230910592
:104B200041F0039749F5E3E1F6E005C0E5E2F6E080
:104B300002C0E9E1F6E0849190E09F0121C0643079
:104B40007105D0F4660F771FFB01E75CFE4F2081F3
:104B5000318189E090E014C06430710568F4FB0194
:104B6000EE0FFF1FEF5CFE4F20813181FB01E35D03
:104B7000FE4F808190E004C080E090E020E030E0D3
:104B8000FA013183208308950895CF93C82F0E949E
:104B9000C425C0935E05CF9108958091A40584300B
:104BA00011F081E0089582E0089580915E05811101
:104BB00002C00C94CD25089580E189BD82E189BDB4
:104BC00009B400FEFDCF8091D8008F7D8093D8007E
:104BD0008091E00082608093E0008091E00081FDA0
:104BE000FCCF0895CF92DF92EF92FF920F931F9325
:104BF000CF93DF93EC018B016A010E94552781114D
:104C000033C0C114D10439F0F60180819181081BB1
:104C1000190BC80FD91FE12CF12C0115110519F141
:104C20008091E80085FD16C08091E8008E77809322
:104C3000E800C114D10449F0F60180819181E80EA9
:104C4000F91EF182E08285E00FC00E94552788237B
:104C500021F30AC089918093F10001501109FFEFFF
:104C6000EF1AFF0ADACF80E0DF91CF911F910F9109
:104C7000FF90EF90DF90CF9008952091AB05309199
:104C8000AC052617370748F06115710539F42091F6
:104C9000E8002E772093E80001C0B90140E06115DB
:104CA0007105A9F12091A405222309F443C0253000
:104CB00009F442C02091E80023FD40C02091E800A3
:104CC00022FD32C02091E80020FFE9CF4091F3009F
:104CD0002091F20030E0342BFC01CF016115710509
:104CE00059F02830310540F481918093F1006150F2
:104CF00071092F5F3F4FF1CF41E02830310509F0B6
:104D000040E02091E8002E772093E800C8CF4111C1
:104D1000C9CF0AC08091A405882361F0853061F075
:104D20008091E80083FD0AC08091E80082FFF2CF05
:104D300080E0089582E0089583E0089581E0089579
:104D40002091AB053091AC052617370748F0611567
:104D5000710539F42091E8002E772093E80001C016
:104D6000B901FC0120E06115710591F18091A40564
:104D7000882309F440C0853009F43FC08091E800E1
:104D800083FD3DC08091E80082FD2FC08091E80046
:104D900080FFE9CF2091F3008091F20090E0922B08
:104DA0006115710559F08830910540F424912093E4
:104DB000F1003196615071090196F2CF21E0089718
:104DC00009F020E08091E8008E778093E800CBCF57
:104DD0002111CCCF0AC08091A405882361F08530D1
:104DE00061F08091E80083FD0AC08091E80082FFB5
:104DF000F2CF80E0089582E0089583E0089581E095
:104E00000895982F973058F59093E900981739F046
:104E10007091EC002091ED005091F00003C0242F20
:104E2000762F50E021FF19C03091EB003E7F309388
:104E3000EB003091ED003D7F3093ED003091EB00C1
:104E400031603093EB007093EC002093ED005093B1
:104E5000F0002091EE0027FF07C09F5FD3CF8F7037
:104E60008093E90081E0089580E008958091A50590
:104E700087FF11C08091E80082FD05C08091A405E4
:104E80008111F8CF11C08091E8008B770BC0809121
:104E9000A405882349F08091E80080FFF8CF809135
:104EA000E8008E778093E80008952091E400309127
:104EB000E50095E64091EC00842F817040FF22C010
:104EC0008091E80080FD1CC08091A405882391F0AA
:104ED000853091F08091EB0085FD10C04091E40099
:104EE0005091E5004217530729F39A01915011F7A9
:104EF00084E0089582E0089583E0089581E00895B4
:104F000080E008954091E80042FFDECF08950E94BE
:104F1000F5270E94FD27E0EEF0E08081816080832C
:104F2000E8EDF0E080818F77808319BCA7EDB0E0D9
:104F30008C918E7F8C9380818F7E80831092A305CD
:104F400008950F931F93CF93DF930E94F5270E943C
:104F5000FD27C8EDD0E088818F77888388818068BD
:104F6000888388818F7D888319BC1092A405109254
:104F7000A0051092A2051092A10500EE10E0F80124
:104F800080818B7F808388818160888342E060E0BC
:104F900080E00E940127E1EEF0E080818E7F808337
:104FA000E2EEF0E080818160808380818860808390
:104FB000F80180818E7F8083888180618883DF9182
:104FC000CF911F910F910895E8EDF0E080818F7EE1
:104FD0008083E7EDF0E080818160808384E082BFA0
:104FE00081E08093A3050C94A127E8EDF0E0808197
:104FF0008E7F80831092E20008951092DA00109262
:10500000E10008951F920F920FB60F9211242F9373
:105010003F934F935F936F937F938F939F93AF9340
:10502000BF93EF93FF938091E10082FF0BC08091CB
:10503000E20082FF07C08091E1008B7F8093E10056
:105040000E94722A8091DA0080FF1FC08091D800F0
:1050500080FF1BC08091DA008E7F8093DA00809100
:10506000D90080FF0DC080E189BD82E189BD09B40E
:1050700000FEFDCF81E08093A4050E944C2405C072
:1050800019BC1092A4050E945A248091E10080FF6F
:1050900019C08091E20080FF15C08091E2008E7FF0
:1050A0008093E2008091E20080618093E200809131
:1050B000D80080628093D80019BC85E08093A40555
:1050C0000E945E248091E10084FF30C08091E20064
:1050D00084FF2CC080E189BD82E189BD09B400FE56
:1050E000FDCF8091D8008F7D8093D8008091E10022
:1050F0008F7E8093E1008091E2008F7E8093E200BA
:105100008091E20081608093E2008091A005882375
:1051100011F084E007C08091E30087FD02C081E0C8
:1051200001C083E08093A4050E945F248091E10088
:1051300083FF29C08091E20083FF25C08091E100B8
:10514000877F8093E10082E08093A4051092A00500
:105150008091E1008E7F8093E1008091E2008E7F5C
:105160008093E2008091E20080618093E20042E05F
:1051700060E080E00E9401278091F00088608093C9
:10518000F0000E945D24FF91EF91BF91AF919F913C
:105190008F917F916F915F914F913F912F910F90E0
:1051A0000FBE0F901F9018951F920F920FB60F927F
:1051B00011242F933F934F935F936F937F938F931C
:1051C0009F93AF93BF93CF93DF93EF93FF93C091E0
:1051D000E900CF708091EC00D82FD17080FDD0E82D
:1051E0001092E9008091F000877F8093F00078941E
:1051F0000E9418291092E9008091F0008860809345
:10520000F000CD2BCF70C093E900FF91EF91DF91BB
:10521000CF91BF91AF919F918F917F916F915F914E
:105220004F913F912F910F900FBE0F901F901895A7
:105230001F93CF93DF93CDB7DEB7AA970FB6F8943D
:10524000DEBF0FBECDBFE5EAF5E088E08E0F90919E
:10525000F10091938E13FBCF0E9475248091E8009A
:1052600083FF28C18091A5059091A605492F50E0A4
:105270004A30510508F01EC1FA01E556FF4F0C9463
:10528000312E803821F0823809F014C108C0809195
:10529000A1059091A205992389F082600FC08091A9
:1052A000A9058F70873008F005C18093E9008091CF
:1052B000EB0085FB882780F91092E9009091E800C7
:1052C000977F9093E8008093F1001092F100D0C096
:1052D000282F2D7F09F0EEC0882319F0823061F06D
:1052E000E9C08091A705813009F0E4C0933009F04E
:1052F00080E08093A2052EC08091A70581112AC06D
:105300008091A9058F702FEF280F263008F0D2C0AA
:105310008093E9002091EB0020FF1CC0933021F422
:105320008091EB00806214C09091EB0090619093AB
:10533000EB0021E030E0A90102C0440F551F8A951F
:10534000E2F74093EA001092EA008091EB00886057
:105350008093EB001092E9008091E800877F8093B2
:10536000E8000E943627A6C08111A4C01091A705AD
:105370001F778091E3008078812B8093E3008091F8
:10538000E800877F8093E8000E9436278091E8003C
:1053900080FFFCCF8091E30080688093E3001111CF
:1053A00002C082E001C083E08093A40583C08058DE
:1053B000823008F07FC08091A7059091A8058C3DB0
:1053C00053E0950779F583E08A838AE289834FB7B2
:1053D000F894DE01139620E03EE051E2E32FF0E086
:1053E00050935700E49120FF03C0E295EF703F5FB8
:1053F000EF708E2F90E0EA3010F0C79601C0C09693
:105400008D939D932F5F243149F74FBF8091E80022
:10541000877F8093E8006AE270E0CE0101960E94E7
:105420003D2615C06091A9057091AA05AE014F5F98
:105430005F4F0E946425BC01892BE1F19091E80047
:10544000977F9093E80089819A810E94A02680919D
:10545000E8008B778093E8002DC0803859F5809163
:10546000E800877F8093E8008091A0058093F10099
:105470008091E8008E7773CF81111CC09091A705B1
:105480009230C0F48091E800877F8093E800909389
:10549000A0050E9436278091A005811106C0809149
:1054A000E30087FD02C081E001C084E08093A40591
:1054B0000E9461248091E80083FF0AC08091E80087
:1054C000877F8093E8008091EB0080628093EB00FF
:1054D000AA960FB6F894DEBF0FBECDBFDF91CF9175
:1054E0001F9108950895CF938091A4058823A1F07A
:1054F000C091E900CF709091EC00892F817090FDF0
:1055000080E8C82B1092E9008091E80083FD0E949A
:105510001829CF70C093E900CF9108955058BB2748
:10552000AA270E94A62A0C94512C0E94432C38F0E2
:105530000E944A2C20F039F49F3F19F426F40C9471
:10554000192C0EF4E095E7FB0C94132CE92F0E9424
:10555000622C58F3BA17620773078407950720F087
:1055600079F4A6F50C94842C0EF4E0950B2EBA2F4A
:10557000A02D0B01B90190010C01CA01A001112459
:10558000FF27591B99F0593F50F4503E68F11A1605
:10559000F040A22F232F342F4427585FF3CF469596
:1055A00037952795A795F0405395C9F77EF41F16B8
:1055B000BA0B620B730B840BBAF09150A1F0FF0F82
:1055C000BB1F661F771F881FC2F70EC0BA0F621F6E
:1055D000731F841F48F4879577956795B795F7955E
:1055E0009E3F08F0B0CF9395880F08F09927EE0FF3
:1055F0009795879508950E940F2B0C94512C0E942B
:105600004A2C58F00E94432C40F029F45F3F29F0C7
:105610000C94132C51110C94852C0C94192C0E9471
:10562000622C68F39923B1F3552391F3951B550B25
:10563000BB27AA2762177307840738F09F5F5F4F65
:10564000220F331F441FAA1FA9F335D00E2E3AF0A4
:10565000E0E832D091505040E695001CCAF72BD0BC
:10566000FE2F29D0660F771F881FBB1F261737070D
:105670004807AB07B0E809F0BB0B802DBF01FF273F
:1056800093585F4F3AF09E3F510578F00C94132CDD
:105690000C94852C5F3FE4F3983ED4F38695779580
:1056A0006795B795F7959F5FC9F7880F911D9695F8
:1056B000879597F90895E1E0660F771F881FBB1F54
:1056C000621773078407BA0720F0621B730B840B01
:1056D000BA0BEE1F88F7E095089529F416F00C94A4
:1056E000132C0C94842C0C94192C0E946A2CA8F373
:1056F0009638A0F707F80F92E8942BE33AEA48EBC4
:105700005FE70E94172D0F920F920F924DB75EB771
:105710000F920E94CD2CEAE4F1E00E941C2C4F91E4
:105720005F91EF91FF91E595EE1FFF1F49F0FE5746
:10573000E0684427EE0F441FFA95E1F74195550BB9
:105740000E94972C0F9007FE0C948B2C08950E94BA
:105750006A2C88F09F5798F0B92F9927B751B0F06D
:10576000E1F0660F771F881F991F1AF0BA95C9F7E5
:1057700014C0B13091F00E94842CB1E008950C94D3
:10578000842C672F782F8827B85F39F0B93FCCF386
:10579000869577956795B395D9F73EF49095809562
:1057A000709561957F4F8F4F9F4F0895E89409C082
:1057B00097FB3EF490958095709561957F4F8F4F44
:1057C0009F4F9923A9F0F92F96E9BB279395F6955A
:1057D000879577956795B795F111F8CFFAF4BB0FD8
:1057E00011F460FF1BC06F5F7F4F8F4F9F4F16C03C
:1057F000882311F096E911C0772321F09EE8872FC6
:10580000762F05C0662371F096E8862F70E060E081
:105810002AF09A95660F771F881FDAF7880F9695FA
:10582000879597F9089597F99F6780E870E060E0A1
:1058300008959FEF80EC0895DF93CF931F930F930C
:10584000FF92EF92DF927B018C01689406C0DA2E02
:10585000EF010E94142DFE01E894A5912591359148
:1058600045915591A6F3EF010E94A62AFE019701EA
:10587000A801DA9469F7DF90EF90FF900F911F91E4
:10588000CF91DF91089500240A9416161706180682
:105890000906089500240A94121613061406050634
:1058A0000895092E0394000C11F4882352F0BB0FC5
:1058B00040F4BF2B11F460FF04C06F5F7F4F8F4F28
:1058C0009F4F089557FD9058440F551F59F05F3F63
:1058D00071F04795880F97FB991F61F09F3F79F012
:1058E00087950895121613061406551FF2CF469594
:1058F000F1DF08C0161617061806991FF1CF869516
:105900007105610508940895E894BB2766277727F9
:10591000CB0197F908959B01AC0160E070E080E84D
:105920009FE30C94FB2A0C94132C0C94762D0E946C
:105930006A2CD8F39923C9F3940F511DA3F3915006
:10594000504094F059F0882332F0660F771F881F7B
:1059500091505040C1F79E3F51052CF7880F911D83
:105960009695879597F908955F3FACF0983E9CF027
:10597000BB27869577956795B79508F4B1609395A1
:10598000C1F7BB0F58F711F460FFE8CF6F5F7F4F8F
:105990008F4F9F4FE3CF0C94852CFA01DC01AA0FA7
:1059A000BB1F9B01AC01BF5728F422273327442794
:1059B000507820C0B75190F4AB2F0024469537950E
:1059C0002795011CA395D2F3002071F0220F331FFD
:1059D000441FB395DAF30ED00C948E2A6130710512
:1059E000A0E88A07B94630F49B01AC016627772707
:1059F00088279078309621F0208331834283538327
:105A000008950E94142D0C94512C0E94432C38F0C0
:105A10000E944A2C20F0952311F00C94132C0C9426
:105A2000192C11240C94852C0E94622C70F3959FE4
:105A3000C1F3950F50E0551F629FF001729FBB2785
:105A4000F00DB11D639FAA27F00DB11DAA1F649F21
:105A50006627B00DA11D661F829F2227B00DA11DD4
:105A6000621F739FB00DA11D621F839FA00D611D5A
:105A7000221F749F3327A00D611D231F849F600D7B
:105A8000211D822F762F6A2F11249F5750409AF0A4
:105A9000F1F088234AF0EE0FFF1FBB1F661F771F30
:105AA000881F91505040A9F79E3F510580F00C94FB
:105AB000132C0C94852C5F3FE4F3983ED4F3869529
:105AC00077956795B795F795E7959F5FC1F7FE2B9B
:105AD000880F911D9695879597F908959F930E9439
